{
  "_format": "hh-sol-artifact-1",
  "contractName": "SemaphoreVoting",
  "sourceName": "contracts/extensions/SemaphoreVoting.sol",
  "abi": [
    {
      "inputs": [
        {
          "components": [
            {
              "internalType": "address",
              "name": "contractAddress",
              "type": "address"
            },
            {
              "internalType": "uint256",
              "name": "merkleTreeDepth",
              "type": "uint256"
            }
          ],
          "internalType": "struct ISemaphoreVoting.Verifier[]",
          "name": "_verifiers",
          "type": "tuple[]"
        }
      ],
      "stateMutability": "nonpayable",
      "type": "constructor"
    },
    {
      "inputs": [],
      "name": "Semaphore__CallerIsNotThePollCoordinator",
      "type": "error"
    },
    {
      "inputs": [],
      "name": "Semaphore__GroupAlreadyExists",
      "type": "error"
    },
    {
      "inputs": [],
      "name": "Semaphore__GroupDoesNotExist",
      "type": "error"
    },
    {
      "inputs": [],
      "name": "Semaphore__GroupIdIsNotLessThanSnarkScalarField",
      "type": "error"
    },
    {
      "inputs": [],
      "name": "Semaphore__MerkleTreeDepthIsNotSupported",
      "type": "error"
    },
    {
      "inputs": [],
      "name": "Semaphore__PollHasAlreadyBeenStarted",
      "type": "error"
    },
    {
      "inputs": [],
      "name": "Semaphore__PollIsNotOngoing",
      "type": "error"
    },
    {
      "inputs": [],
      "name": "Semaphore__YouAreUsingTheSameNillifierTwice",
      "type": "error"
    },
    {
      "anonymous": false,
      "inputs": [
        {
          "indexed": true,
          "internalType": "uint256",
          "name": "groupId",
          "type": "uint256"
        },
        {
          "indexed": false,
          "internalType": "uint256",
          "name": "merkleTreeDepth",
          "type": "uint256"
        },
        {
          "indexed": false,
          "internalType": "uint256",
          "name": "zeroValue",
          "type": "uint256"
        }
      ],
      "name": "GroupCreated",
      "type": "event"
    },
    {
      "anonymous": false,
      "inputs": [
        {
          "indexed": true,
          "internalType": "uint256",
          "name": "groupId",
          "type": "uint256"
        },
        {
          "indexed": false,
          "internalType": "uint256",
          "name": "index",
          "type": "uint256"
        },
        {
          "indexed": false,
          "internalType": "uint256",
          "name": "identityCommitment",
          "type": "uint256"
        },
        {
          "indexed": false,
          "internalType": "uint256",
          "name": "merkleTreeRoot",
          "type": "uint256"
        }
      ],
      "name": "MemberAdded",
      "type": "event"
    },
    {
      "anonymous": false,
      "inputs": [
        {
          "indexed": true,
          "internalType": "uint256",
          "name": "groupId",
          "type": "uint256"
        },
        {
          "indexed": false,
          "internalType": "uint256",
          "name": "index",
          "type": "uint256"
        },
        {
          "indexed": false,
          "internalType": "uint256",
          "name": "identityCommitment",
          "type": "uint256"
        },
        {
          "indexed": false,
          "internalType": "uint256",
          "name": "merkleTreeRoot",
          "type": "uint256"
        }
      ],
      "name": "MemberRemoved",
      "type": "event"
    },
    {
      "anonymous": false,
      "inputs": [
        {
          "indexed": true,
          "internalType": "uint256",
          "name": "groupId",
          "type": "uint256"
        },
        {
          "indexed": false,
          "internalType": "uint256",
          "name": "index",
          "type": "uint256"
        },
        {
          "indexed": false,
          "internalType": "uint256",
          "name": "identityCommitment",
          "type": "uint256"
        },
        {
          "indexed": false,
          "internalType": "uint256",
          "name": "newIdentityCommitment",
          "type": "uint256"
        },
        {
          "indexed": false,
          "internalType": "uint256",
          "name": "merkleTreeRoot",
          "type": "uint256"
        }
      ],
      "name": "MemberUpdated",
      "type": "event"
    },
    {
      "anonymous": false,
      "inputs": [
        {
          "indexed": false,
          "internalType": "uint256",
          "name": "nullifierHash",
          "type": "uint256"
        }
      ],
      "name": "NullifierHashAdded",
      "type": "event"
    },
    {
      "anonymous": false,
      "inputs": [
        {
          "indexed": false,
          "internalType": "uint256",
          "name": "pollId",
          "type": "uint256"
        },
        {
          "indexed": true,
          "internalType": "address",
          "name": "coordinator",
          "type": "address"
        }
      ],
      "name": "PollCreated",
      "type": "event"
    },
    {
      "anonymous": false,
      "inputs": [
        {
          "indexed": false,
          "internalType": "uint256",
          "name": "pollId",
          "type": "uint256"
        },
        {
          "indexed": true,
          "internalType": "address",
          "name": "coordinator",
          "type": "address"
        },
        {
          "indexed": false,
          "internalType": "uint256",
          "name": "decryptionKey",
          "type": "uint256"
        }
      ],
      "name": "PollEnded",
      "type": "event"
    },
    {
      "anonymous": false,
      "inputs": [
        {
          "indexed": false,
          "internalType": "uint256",
          "name": "pollId",
          "type": "uint256"
        },
        {
          "indexed": true,
          "internalType": "address",
          "name": "coordinator",
          "type": "address"
        },
        {
          "indexed": false,
          "internalType": "uint256",
          "name": "encryptionKey",
          "type": "uint256"
        }
      ],
      "name": "PollStarted",
      "type": "event"
    },
    {
      "anonymous": false,
      "inputs": [
        {
          "indexed": true,
          "internalType": "uint256",
          "name": "pollId",
          "type": "uint256"
        },
        {
          "indexed": false,
          "internalType": "bytes32",
          "name": "vote",
          "type": "bytes32"
        }
      ],
      "name": "VoteAdded",
      "type": "event"
    },
    {
      "inputs": [
        {
          "internalType": "uint256",
          "name": "pollId",
          "type": "uint256"
        },
        {
          "internalType": "uint256",
          "name": "identityCommitment",
          "type": "uint256"
        }
      ],
      "name": "addVoter",
      "outputs": [],
      "stateMutability": "nonpayable",
      "type": "function"
    },
    {
      "inputs": [
        {
          "internalType": "bytes32",
          "name": "vote",
          "type": "bytes32"
        },
        {
          "internalType": "uint256",
          "name": "nullifierHash",
          "type": "uint256"
        },
        {
          "internalType": "uint256",
          "name": "pollId",
          "type": "uint256"
        },
        {
          "internalType": "uint256[8]",
          "name": "proof",
          "type": "uint256[8]"
        }
      ],
      "name": "castVote",
      "outputs": [],
      "stateMutability": "nonpayable",
      "type": "function"
    },
    {
      "inputs": [
        {
          "internalType": "uint256",
          "name": "pollId",
          "type": "uint256"
        },
        {
          "internalType": "address",
          "name": "coordinator",
          "type": "address"
        },
        {
          "internalType": "uint256",
          "name": "merkleTreeDepth",
          "type": "uint256"
        }
      ],
      "name": "createPoll",
      "outputs": [],
      "stateMutability": "nonpayable",
      "type": "function"
    },
    {
      "inputs": [
        {
          "internalType": "uint256",
          "name": "pollId",
          "type": "uint256"
        },
        {
          "internalType": "uint256",
          "name": "decryptionKey",
          "type": "uint256"
        }
      ],
      "name": "endPoll",
      "outputs": [],
      "stateMutability": "nonpayable",
      "type": "function"
    },
    {
      "inputs": [
        {
          "internalType": "uint256",
          "name": "groupId",
          "type": "uint256"
        }
      ],
      "name": "getMerkleTreeDepth",
      "outputs": [
        {
          "internalType": "uint256",
          "name": "",
          "type": "uint256"
        }
      ],
      "stateMutability": "view",
      "type": "function"
    },
    {
      "inputs": [
        {
          "internalType": "uint256",
          "name": "groupId",
          "type": "uint256"
        }
      ],
      "name": "getMerkleTreeRoot",
      "outputs": [
        {
          "internalType": "uint256",
          "name": "",
          "type": "uint256"
        }
      ],
      "stateMutability": "view",
      "type": "function"
    },
    {
      "inputs": [
        {
          "internalType": "uint256",
          "name": "groupId",
          "type": "uint256"
        }
      ],
      "name": "getNumberOfMerkleTreeLeaves",
      "outputs": [
        {
          "internalType": "uint256",
          "name": "",
          "type": "uint256"
        }
      ],
      "stateMutability": "view",
      "type": "function"
    },
    {
      "inputs": [
        {
          "internalType": "uint256",
          "name": "pollId",
          "type": "uint256"
        },
        {
          "internalType": "uint256",
          "name": "encryptionKey",
          "type": "uint256"
        }
      ],
      "name": "startPoll",
      "outputs": [],
      "stateMutability": "nonpayable",
      "type": "function"
    }
  ],
  "bytecode": "0x60806040523480156200001157600080fd5b5060405162001dd238038062001dd2833981810160405281019062000037919062000260565b60005b81518160ff1610156200013557818160ff168151811062000084577f4e487b7100000000000000000000000000000000000000000000000000000000600052603260045260246000fd5b60200260200101516000015160016000848460ff1681518110620000d1577f4e487b7100000000000000000000000000000000000000000000000000000000600052603260045260246000fd5b602002602001015160200151815260200190815260200160002060006101000a81548173ffffffffffffffffffffffffffffffffffffffff021916908373ffffffffffffffffffffffffffffffffffffffff1602179055508060010190506200003a565b5050620003e5565b6000620001546200014e84620002ce565b620002a5565b905080838252602082019050828560408602820111156200017457600080fd5b60005b85811015620001a857816200018d8882620001f6565b84526020840193506040830192505060018101905062000177565b5050509392505050565b600081519050620001c381620003b1565b92915050565b600082601f830112620001db57600080fd5b8151620001ed8482602086016200013d565b91505092915050565b6000604082840312156200020957600080fd5b620002156040620002a5565b905060006200022784828501620001b2565b60008301525060206200023d8482850162000249565b60208301525092915050565b6000815190506200025a81620003cb565b92915050565b6000602082840312156200027357600080fd5b600082015167ffffffffffffffff8111156200028e57600080fd5b6200029c84828501620001c9565b91505092915050565b6000620002b1620002c4565b9050620002bf82826200033b565b919050565b6000604051905090565b600067ffffffffffffffff821115620002ec57620002eb62000371565b5b602082029050602081019050919050565b60006200030a8262000311565b9050919050565b600073ffffffffffffffffffffffffffffffffffffffff82169050919050565b6000819050919050565b6200034682620003a0565b810181811067ffffffffffffffff8211171562000368576200036762000371565b5b80604052505050565b7f4e487b7100000000000000000000000000000000000000000000000000000000600052604160045260246000fd5b6000601f19601f8301169050919050565b620003bc81620002fd565b8114620003c857600080fd5b50565b620003d68162000331565b8114620003e257600080fd5b50565b6119dd80620003f56000396000f3fe608060405234801561001057600080fd5b50600436106100885760003560e01c8063b359dd431161005b578063b359dd4314610125578063bbd8c7db14610141578063dabc4d511461015d578063f391f75d1461018d57610088565b80630a120bb01461008d578063633f439d146100a9578063638480be146100c55780636389e107146100f5575b600080fd5b6100a760048036038101906100a291906114a3565b6101a9565b005b6100c360048036038101906100be91906113c7565b610328565b005b6100df60048036038101906100da919061142b565b61069f565b6040516100ec91906117a2565b60405180910390f35b61010f600480360381019061010a919061142b565b6106be565b60405161011c91906117a2565b60405180910390f35b61013f600480360381019061013a91906114a3565b6106dd565b005b61015b600480360381019061015691906114a3565b61090e565b005b6101776004803603810190610172919061142b565b610b3e565b60405161018491906117a2565b60405180910390f35b6101a760048036038101906101a29190611454565b610b5d565b005b816101b2610d4b565b73ffffffffffffffffffffffffffffffffffffffff166002600083815260200190815260200160002060000160009054906101000a900473ffffffffffffffffffffffffffffffffffffffff1673ffffffffffffffffffffffffffffffffffffffff161461024c576040517fe4a34e1500000000000000000000000000000000000000000000000000000000815260040160405180910390fd5b60006002811115610286577f4e487b7100000000000000000000000000000000000000000000000000000000600052602160045260246000fd5b6002600085815260200190815260200160002060000160149054906101000a900460ff1660028111156102e2577f4e487b7100000000000000000000000000000000000000000000000000000000600052602160045260246000fd5b14610319576040517f67f5eebb00000000000000000000000000000000000000000000000000000000815260040160405180910390fd5b6103238383610d53565b505050565b81610331610d4b565b73ffffffffffffffffffffffffffffffffffffffff166002600083815260200190815260200160002060000160009054906101000a900473ffffffffffffffffffffffffffffffffffffffff1673ffffffffffffffffffffffffffffffffffffffff16146103cb576040517fe4a34e1500000000000000000000000000000000000000000000000000000000815260040160405180910390fd5b6000600260008581526020019081526020016000206040518060400160405290816000820160009054906101000a900473ffffffffffffffffffffffffffffffffffffffff1673ffffffffffffffffffffffffffffffffffffffff1673ffffffffffffffffffffffffffffffffffffffff1681526020016000820160149054906101000a900460ff16600281111561048c577f4e487b7100000000000000000000000000000000000000000000000000000000600052602160045260246000fd5b60028111156104c4577f4e487b7100000000000000000000000000000000000000000000000000000000600052602160045260246000fd5b81525050905060016002811115610504577f4e487b7100000000000000000000000000000000000000000000000000000000600052602160045260246000fd5b81602001516002811115610541577f4e487b7100000000000000000000000000000000000000000000000000000000600052602160045260246000fd5b14610578576040517fe1b6c09100000000000000000000000000000000000000000000000000000000815260040160405180910390fd5b6003600086815260200190815260200160002060009054906101000a900460ff16156105d0576040517f948d067400000000000000000000000000000000000000000000000000000000815260040160405180910390fd5b60006105db856106be565b905060006105e886610b3e565b905060006001600084815260200190815260200160002060009054906101000a900473ffffffffffffffffffffffffffffffffffffffff16905061063089838a8a8a86610e7a565b6001600360008a815260200190815260200160002060006101000a81548160ff021916908315150217905550867f9259c591af3680137739dc2b275c388eb1639a143b49022e7062fa162f14776d8a60405161068c9190611727565b60405180910390a2505050505050505050565b6000806000838152602001908152602001600020600201549050919050565b6000806000838152602001908152602001600020600001549050919050565b816106e6610d4b565b73ffffffffffffffffffffffffffffffffffffffff166002600083815260200190815260200160002060000160009054906101000a900473ffffffffffffffffffffffffffffffffffffffff1673ffffffffffffffffffffffffffffffffffffffff1614610780576040517fe4a34e1500000000000000000000000000000000000000000000000000000000815260040160405180910390fd5b600060028111156107ba577f4e487b7100000000000000000000000000000000000000000000000000000000600052602160045260246000fd5b6002600085815260200190815260200160002060000160149054906101000a900460ff166002811115610816577f4e487b7100000000000000000000000000000000000000000000000000000000600052602160045260246000fd5b1461084d576040517f67f5eebb00000000000000000000000000000000000000000000000000000000815260040160405180910390fd5b60016002600085815260200190815260200160002060000160146101000a81548160ff021916908360028111156108ad577f4e487b7100000000000000000000000000000000000000000000000000000000600052602160045260246000fd5b02179055506108ba610d4b565b73ffffffffffffffffffffffffffffffffffffffff167f426c5e6bd38728569cc4e1f0a309f506d4c1bc56189920d59343af2639b60d3e84846040516109019291906117bd565b60405180910390a2505050565b81610917610d4b565b73ffffffffffffffffffffffffffffffffffffffff166002600083815260200190815260200160002060000160009054906101000a900473ffffffffffffffffffffffffffffffffffffffff1673ffffffffffffffffffffffffffffffffffffffff16146109b1576040517fe4a34e1500000000000000000000000000000000000000000000000000000000815260040160405180910390fd5b600160028111156109eb577f4e487b7100000000000000000000000000000000000000000000000000000000600052602160045260246000fd5b6002600085815260200190815260200160002060000160149054906101000a900460ff166002811115610a47577f4e487b7100000000000000000000000000000000000000000000000000000000600052602160045260246000fd5b14610a7e576040517fe1b6c09100000000000000000000000000000000000000000000000000000000815260040160405180910390fd5b600280600085815260200190815260200160002060000160146101000a81548160ff02191690836002811115610add577f4e487b7100000000000000000000000000000000000000000000000000000000600052602160045260246000fd5b0217905550610aea610d4b565b73ffffffffffffffffffffffffffffffffffffffff167f4a0c303670c99ff9b9eab216bcca4f03007fbece83818599a2946ea62c541fde8484604051610b319291906117bd565b60405180910390a2505050565b6000806000838152602001908152602001600020600101549050919050565b600073ffffffffffffffffffffffffffffffffffffffff166001600083815260200190815260200160002060009054906101000a900473ffffffffffffffffffffffffffffffffffffffff1673ffffffffffffffffffffffffffffffffffffffff161415610bf7576040517fecf64f1200000000000000000000000000000000000000000000000000000000815260040160405180910390fd5b610c0383826000611173565b610c0b611302565b82816000019073ffffffffffffffffffffffffffffffffffffffff16908173ffffffffffffffffffffffffffffffffffffffff1681525050806002600086815260200190815260200160002060008201518160000160006101000a81548173ffffffffffffffffffffffffffffffffffffffff021916908373ffffffffffffffffffffffffffffffffffffffff16021790555060208201518160000160146101000a81548160ff02191690836002811115610cef577f4e487b7100000000000000000000000000000000000000000000000000000000600052602160045260246000fd5b02179055509050508273ffffffffffffffffffffffffffffffffffffffff167fb447d309fd3b1a27466cdb08ccc02ee5188e9c71fc58af042bafe3e0bb45123085604051610d3d91906117a2565b60405180910390a250505050565b600033905090565b6000610d5e836106be565b1415610d96576040517f029f057900000000000000000000000000000000000000000000000000000000815260040160405180910390fd5b60008083815260200190815260200160002073__$0c6eb7207c37accf1552a1c47686411ac0$__63168703fa9091836040518363ffffffff1660e01b8152600401610de2929190611742565b60006040518083038186803b158015610dfa57600080fd5b505af4158015610e0e573d6000803e3d6000fd5b505050506000610e1d83610b3e565b905060006001610e2c8561069f565b610e3691906118af565b9050837f19239b3f93cd10558aaf11423af70c77763bf54f52bcc75bfa74d4d13548cde9828585604051610e6c939291906117e6565b60405180910390a250505050565b6000610e85876112cb565b90508173ffffffffffffffffffffffffffffffffffffffff16635fe8c13b604051806040016040528086600060088110610ee8577f4e487b7100000000000000000000000000000000000000000000000000000000600052603260045260246000fd5b6020020135815260200186600160088110610f2c577f4e487b7100000000000000000000000000000000000000000000000000000000600052603260045260246000fd5b60200201358152506040518060400160405280604051806040016040528089600260088110610f84577f4e487b7100000000000000000000000000000000000000000000000000000000600052603260045260246000fd5b6020020135815260200189600360088110610fc8577f4e487b7100000000000000000000000000000000000000000000000000000000600052603260045260246000fd5b6020020135815250815260200160405180604001604052808960046008811061101a577f4e487b7100000000000000000000000000000000000000000000000000000000600052603260045260246000fd5b602002013581526020018960056008811061105e577f4e487b7100000000000000000000000000000000000000000000000000000000600052603260045260246000fd5b60200201358152508152506040518060400160405280886006600881106110ae577f4e487b7100000000000000000000000000000000000000000000000000000000600052603260045260246000fd5b60200201358152602001886007600881106110f2577f4e487b7100000000000000000000000000000000000000000000000000000000600052603260045260246000fd5b602002013581525060405180608001604052808c81526020018b81526020018781526020018a8152506040518563ffffffff1660e01b815260040161113a94939291906116e0565b60006040518083038186803b15801561115257600080fd5b505afa158015611166573d6000803e3d6000fd5b5050505050505050505050565b7f30644e72e131a029b85045b68181585d2833e84879b9709143e1f593f000000183106111cc576040517fa61c78ca00000000000000000000000000000000000000000000000000000000815260040160405180910390fd5b60006111d7846106be565b1461120e576040517f8121725b00000000000000000000000000000000000000000000000000000000815260040160405180910390fd5b60008084815260200190815260200160002073__$0c6eb7207c37accf1552a1c47686411ac0$__631095fbb4909184846040518463ffffffff1660e01b815260040161125c9392919061176b565b60006040518083038186803b15801561127457600080fd5b505af4158015611288573d6000803e3d6000fd5b50505050827f0d000126c26c1bbe400fd2332187f75d58b69306f9ec47b408686189d3a0083383836040516112be9291906117bd565b60405180910390a2505050565b60006008826040516020016112e091906116c5565b6040516020818303038152906040528051906020012060001c901c9050919050565b6040518060400160405280600073ffffffffffffffffffffffffffffffffffffffff16815260200160006002811115611364577f4e487b7100000000000000000000000000000000000000000000000000000000600052602160045260246000fd5b81525090565b60008135905061137981611962565b92915050565b60008190508260206008028201111561139757600080fd5b92915050565b6000813590506113ac81611979565b92915050565b6000813590506113c181611990565b92915050565b60008060008061016085870312156113de57600080fd5b60006113ec8782880161139d565b94505060206113fd878288016113b2565b935050604061140e878288016113b2565b925050606061141f8782880161137f565b91505092959194509250565b60006020828403121561143d57600080fd5b600061144b848285016113b2565b91505092915050565b60008060006060848603121561146957600080fd5b6000611477868287016113b2565b93505060206114888682870161136a565b9250506040611499868287016113b2565b9150509250925092565b600080604083850312156114b657600080fd5b60006114c4858286016113b2565b92505060206114d5858286016113b2565b9150509250929050565b60006114eb8383611566565b60408301905092915050565b60006115038383611698565b60208301905092915050565b6115188161183b565b6115228184611883565b925061152d8261181d565b8060005b8381101561155e57815161154587826114df565b96506115508361185c565b925050600181019050611531565b505050505050565b61156f81611846565b611579818461188e565b925061158482611827565b8060005b838110156115b557815161159c87826114f7565b96506115a783611869565b925050600181019050611588565b505050505050565b6115c681611846565b6115d08184611899565b92506115db82611827565b8060005b8381101561160c5781516115f387826114f7565b96506115fe83611869565b9250506001810190506115df565b505050505050565b61161d81611851565b61162781846118a4565b925061163282611831565b8060005b8381101561166357815161164a87826114f7565b965061165583611876565b925050600181019050611636565b505050505050565b611674816118f5565b82525050565b61168b611686826118f5565b611929565b82525050565b8082525050565b6116a18161191f565b82525050565b6116b08161191f565b82525050565b6116bf8161191f565b82525050565b60006116d1828461167a565b60208201915081905092915050565b6000610180820190506116f660008301876115bd565b611703604083018661150f565b61171060c08301856115bd565b61171e610100830184611614565b95945050505050565b600060208201905061173c600083018461166b565b92915050565b60006040820190506117576000830185611691565b61176460208301846116b6565b9392505050565b60006060820190506117806000830186611691565b61178d60208301856116b6565b61179a60408301846116b6565b949350505050565b60006020820190506117b760008301846116a7565b92915050565b60006040820190506117d260008301856116a7565b6117df60208301846116a7565b9392505050565b60006060820190506117fb60008301866116a7565b61180860208301856116a7565b61181560408301846116a7565b949350505050565b6000819050919050565b6000819050919050565b6000819050919050565b600060029050919050565b600060029050919050565b600060049050919050565b6000602082019050919050565b6000602082019050919050565b6000602082019050919050565b600081905092915050565b600081905092915050565b600081905092915050565b600081905092915050565b60006118ba8261191f565b91506118c58361191f565b9250828210156118d8576118d7611933565b5b828203905092915050565b60006118ee826118ff565b9050919050565b6000819050919050565b600073ffffffffffffffffffffffffffffffffffffffff82169050919050565b6000819050919050565b6000819050919050565b7f4e487b7100000000000000000000000000000000000000000000000000000000600052601160045260246000fd5b61196b816118e3565b811461197657600080fd5b50565b611982816118f5565b811461198d57600080fd5b50565b6119998161191f565b81146119a457600080fd5b5056fea2646970667358221220e542620eafaa1b73cacfc0febe66d7c2834089323737fa44c1b0add1d03adbbc64736f6c63430008040033",
  "linkReferences": {
    "@zk-kit/incremental-merkle-tree.sol/IncrementalBinaryTree.sol": {
      "IncrementalBinaryTree": [
        {
          "length": 20,
          "start": 4511
        },
        {
          "length": 20,
          "start": 5655
        }
      ]
    }
  },
  "deployedLinkReferences": {
    "@zk-kit/incremental-merkle-tree.sol/IncrementalBinaryTree.sol": {
      "IncrementalBinaryTree": [
        {
          "length": 20,
          "start": 3498
        },
        {
          "length": 20,
          "start": 4642
        }
      ]
    }
  }
}