{"contracts/Semaphore.sol":{"Semaphore":{"abi":[{"inputs":[{"components":[{"internalType":"address","name":"contractAddress","type":"address"},{"internalType":"uint256","name":"merkleTreeDepth","type":"uint256"}],"internalType":"struct ISemaphore.Verifier[]","name":"_verifiers","type":"tuple[]"}],"stateMutability":"nonpayable","type":"constructor"},{"inputs":[],"name":"Semaphore__CallerIsNotTheGroupAdmin","type":"error"},{"inputs":[],"name":"Semaphore__GroupAlreadyExists","type":"error"},{"inputs":[],"name":"Semaphore__GroupDoesNotExist","type":"error"},{"inputs":[],"name":"Semaphore__GroupIdIsNotLessThanSnarkScalarField","type":"error"},{"inputs":[],"name":"Semaphore__MerkleTreeDepthIsNotSupported","type":"error"},{"inputs":[],"name":"Semaphore__MerkleTreeRootIsExpired","type":"error"},{"inputs":[],"name":"Semaphore__MerkleTreeRootIsNotPartOfTheGroup","type":"error"},{"inputs":[],"name":"Semaphore__YouAreUsingTheSameNillifierTwice","type":"error"},{"anonymous":false,"inputs":[{"indexed":true,"internalType":"uint256","name":"groupId","type":"uint256"},{"indexed":true,"internalType":"address","name":"oldAdmin","type":"address"},{"indexed":true,"internalType":"address","name":"newAdmin","type":"address"}],"name":"GroupAdminUpdated","type":"event"},{"anonymous":false,"inputs":[{"indexed":true,"internalType":"uint256","name":"groupId","type":"uint256"},{"indexed":false,"internalType":"uint256","name":"merkleTreeDepth","type":"uint256"},{"indexed":false,"internalType":"uint256","name":"zeroValue","type":"uint256"}],"name":"GroupCreated","type":"event"},{"anonymous":false,"inputs":[{"indexed":true,"internalType":"uint256","name":"groupId","type":"uint256"},{"indexed":false,"internalType":"uint256","name":"index","type":"uint256"},{"indexed":false,"internalType":"uint256","name":"identityCommitment","type":"uint256"},{"indexed":false,"internalType":"uint256","name":"merkleTreeRoot","type":"uint256"}],"name":"MemberAdded","type":"event"},{"anonymous":false,"inputs":[{"indexed":true,"internalType":"uint256","name":"groupId","type":"uint256"},{"indexed":false,"internalType":"uint256","name":"index","type":"uint256"},{"indexed":false,"internalType":"uint256","name":"identityCommitment","type":"uint256"},{"indexed":false,"internalType":"uint256","name":"merkleTreeRoot","type":"uint256"}],"name":"MemberRemoved","type":"event"},{"anonymous":false,"inputs":[{"indexed":true,"internalType":"uint256","name":"groupId","type":"uint256"},{"indexed":false,"internalType":"uint256","name":"index","type":"uint256"},{"indexed":false,"internalType":"uint256","name":"identityCommitment","type":"uint256"},{"indexed":false,"internalType":"uint256","name":"newIdentityCommitment","type":"uint256"},{"indexed":false,"internalType":"uint256","name":"merkleTreeRoot","type":"uint256"}],"name":"MemberUpdated","type":"event"},{"anonymous":false,"inputs":[{"indexed":false,"internalType":"uint256","name":"nullifierHash","type":"uint256"}],"name":"NullifierHashAdded","type":"event"},{"anonymous":false,"inputs":[{"indexed":true,"internalType":"uint256","name":"groupId","type":"uint256"},{"indexed":false,"internalType":"uint256","name":"merkleTreeRoot","type":"uint256"},{"indexed":false,"internalType":"uint256","name":"externalNullifier","type":"uint256"},{"indexed":false,"internalType":"uint256","name":"nullifierHash","type":"uint256"},{"indexed":false,"internalType":"bytes32","name":"signal","type":"bytes32"}],"name":"ProofVerified","type":"event"},{"inputs":[{"internalType":"uint256","name":"groupId","type":"uint256"},{"internalType":"uint256","name":"identityCommitment","type":"uint256"}],"name":"addMember","outputs":[],"stateMutability":"nonpayable","type":"function"},{"inputs":[{"internalType":"uint256","name":"groupId","type":"uint256"},{"internalType":"uint256[]","name":"identityCommitments","type":"uint256[]"}],"name":"addMembers","outputs":[],"stateMutability":"nonpayable","type":"function"},{"inputs":[{"internalType":"uint256","name":"groupId","type":"uint256"},{"internalType":"uint256","name":"merkleTreeDepth","type":"uint256"},{"internalType":"uint256","name":"zeroValue","type":"uint256"},{"internalType":"address","name":"admin","type":"address"}],"name":"createGroup","outputs":[],"stateMutability":"nonpayable","type":"function"},{"inputs":[{"internalType":"uint256","name":"groupId","type":"uint256"},{"internalType":"uint256","name":"merkleTreeDepth","type":"uint256"},{"internalType":"uint256","name":"zeroValue","type":"uint256"},{"internalType":"address","name":"admin","type":"address"},{"internalType":"uint256","name":"merkleTreeRootDuration","type":"uint256"}],"name":"createGroup","outputs":[],"stateMutability":"nonpayable","type":"function"},{"inputs":[{"internalType":"uint256","name":"groupId","type":"uint256"}],"name":"getMerkleTreeDepth","outputs":[{"internalType":"uint256","name":"","type":"uint256"}],"stateMutability":"view","type":"function"},{"inputs":[{"internalType":"uint256","name":"groupId","type":"uint256"}],"name":"getMerkleTreeRoot","outputs":[{"internalType":"uint256","name":"","type":"uint256"}],"stateMutability":"view","type":"function"},{"inputs":[{"internalType":"uint256","name":"groupId","type":"uint256"}],"name":"getNumberOfMerkleTreeLeaves","outputs":[{"internalType":"uint256","name":"","type":"uint256"}],"stateMutability":"view","type":"function"},{"inputs":[{"internalType":"uint256","name":"","type":"uint256"}],"name":"groups","outputs":[{"internalType":"address","name":"admin","type":"address"},{"internalType":"uint256","name":"merkleRootDuration","type":"uint256"}],"stateMutability":"view","type":"function"},{"inputs":[{"internalType":"uint256","name":"groupId","type":"uint256"},{"internalType":"uint256","name":"identityCommitment","type":"uint256"},{"internalType":"uint256[]","name":"proofSiblings","type":"uint256[]"},{"internalType":"uint8[]","name":"proofPathIndices","type":"uint8[]"}],"name":"removeMember","outputs":[],"stateMutability":"nonpayable","type":"function"},{"inputs":[{"internalType":"uint256","name":"groupId","type":"uint256"},{"internalType":"address","name":"newAdmin","type":"address"}],"name":"updateGroupAdmin","outputs":[],"stateMutability":"nonpayable","type":"function"},{"inputs":[{"internalType":"uint256","name":"groupId","type":"uint256"},{"internalType":"uint256","name":"identityCommitment","type":"uint256"},{"internalType":"uint256","name":"newIdentityCommitment","type":"uint256"},{"internalType":"uint256[]","name":"proofSiblings","type":"uint256[]"},{"internalType":"uint8[]","name":"proofPathIndices","type":"uint8[]"}],"name":"updateMember","outputs":[],"stateMutability":"nonpayable","type":"function"},{"inputs":[{"internalType":"uint256","name":"","type":"uint256"}],"name":"verifiers","outputs":[{"internalType":"contract IVerifier","name":"","type":"address"}],"stateMutability":"view","type":"function"},{"inputs":[{"internalType":"uint256","name":"groupId","type":"uint256"},{"internalType":"uint256","name":"merkleTreeRoot","type":"uint256"},{"internalType":"bytes32","name":"signal","type":"bytes32"},{"internalType":"uint256","name":"nullifierHash","type":"uint256"},{"internalType":"uint256","name":"externalNullifier","type":"uint256"},{"internalType":"uint256[8]","name":"proof","type":"uint256[8]"}],"name":"verifyProof","outputs":[],"stateMutability":"nonpayable","type":"function"}],"evm":{"bytecode":{"linkReferences":{"@zk-kit/incremental-merkle-tree.sol/IncrementalBinaryTree.sol":{"IncrementalBinaryTree":[{"length":20,"start":4656},{"length":20,"start":5039},{"length":20,"start":5295},{"length":20,"start":6352}]}},"object":"60806040523480156200001157600080fd5b50604051620028d5380380620028d5833981810160405281019062000037919062000260565b60005b81518160ff1610156200013557818160ff168151811062000084577f4e487b7100000000000000000000000000000000000000000000000000000000600052603260045260246000fd5b60200260200101516000015160016000848460ff1681518110620000d1577f4e487b7100000000000000000000000000000000000000000000000000000000600052603260045260246000fd5b602002602001015160200151815260200190815260200160002060006101000a81548173ffffffffffffffffffffffffffffffffffffffff021916908373ffffffffffffffffffffffffffffffffffffffff1602179055508060010190506200003a565b5050620003e5565b6000620001546200014e84620002ce565b620002a5565b905080838252602082019050828560408602820111156200017457600080fd5b60005b85811015620001a857816200018d8882620001f6565b84526020840193506040830192505060018101905062000177565b5050509392505050565b600081519050620001c381620003b1565b92915050565b600082601f830112620001db57600080fd5b8151620001ed8482602086016200013d565b91505092915050565b6000604082840312156200020957600080fd5b620002156040620002a5565b905060006200022784828501620001b2565b60008301525060206200023d8482850162000249565b60208301525092915050565b6000815190506200025a81620003cb565b92915050565b6000602082840312156200027357600080fd5b600082015167ffffffffffffffff8111156200028e57600080fd5b6200029c84828501620001c9565b91505092915050565b6000620002b1620002c4565b9050620002bf82826200033b565b919050565b6000604051905090565b600067ffffffffffffffff821115620002ec57620002eb62000371565b5b602082029050602081019050919050565b60006200030a8262000311565b9050919050565b600073ffffffffffffffffffffffffffffffffffffffff82169050919050565b6000819050919050565b6200034682620003a0565b810181811067ffffffffffffffff8211171562000368576200036762000371565b5b80604052505050565b7f4e487b7100000000000000000000000000000000000000000000000000000000600052604160045260246000fd5b6000601f19601f8301169050919050565b620003bc81620002fd565b8114620003c857600080fd5b50565b620003d68162000331565b8114620003e257600080fd5b50565b6124e080620003f56000396000f3fe608060405234801561001057600080fd5b50600436106100cf5760003560e01c80636389e1071161008c578063aa524e2c11610066578063aa524e2c1461020d578063ac1eff6814610229578063dabc4d5114610259578063ec45622a14610289576100cf565b80636389e107146101905780638b69310a146101c057806396324bd4146101dc576100cf565b806304245371146100d4578063059f1bb5146100f05780631783efc31461010c57806343989f8514610128578063568ee82614610144578063638480be14610160575b600080fd5b6100ee60048036038101906100e99190611882565b6102a5565b005b61010a60048036038101906101059190611a3b565b6103f1565b005b610126600480360381019061012191906118da565b61056c565b005b610142600480360381019061013d9190611916565b610658565b005b61015e60048036038101906101599190611846565b610712565b005b61017a6004803603810190610175919061181d565b610871565b6040516101879190612090565b60405180910390f35b6101aa60048036038101906101a5919061181d565b610890565b6040516101b79190612090565b60405180910390f35b6101da60048036038101906101d591906119b1565b6108af565b005b6101f660048036038101906101f1919061181d565b610b10565b604051610204929190611ee9565b60405180910390f35b61022760048036038101906102229190611a9e565b610b54565b005b610243600480360381019061023e919061181d565b610cce565b6040516102509190611f59565b60405180910390f35b610273600480360381019061026e919061181d565b610d01565b6040516102809190612090565b60405180910390f35b6102a3600480360381019061029e9190611b15565b610d20565b005b826102ae610ddc565b73ffffffffffffffffffffffffffffffffffffffff166002600083815260200190815260200160002060000160009054906101000a900473ffffffffffffffffffffffffffffffffffffffff1673ffffffffffffffffffffffffffffffffffffffff1614610348576040517fbb9bf27800000000000000000000000000000000000000000000000000000000815260040160405180910390fd5b60005b838390508160ff1610156103b0576103a58585858460ff16818110610399577f4e487b7100000000000000000000000000000000000000000000000000000000600052603260045260246000fd5b90506020020135610de4565b80600101905061034b565b5060006103bc85610d01565b905042600260008781526020019081526020016000206002016000838152602001908152602001600020819055505050505050565b82600073ffffffffffffffffffffffffffffffffffffffff166001600083815260200190815260200160002060009054906101000a900473ffffffffffffffffffffffffffffffffffffffff1673ffffffffffffffffffffffffffffffffffffffff16141561048c576040517fecf64f1200000000000000000000000000000000000000000000000000000000815260040160405180910390fd5b610497858585610f0b565b816002600087815260200190815260200160002060000160006101000a81548173ffffffffffffffffffffffffffffffffffffffff021916908373ffffffffffffffffffffffffffffffffffffffff160217905550610e1060026000878152602001908152602001600020600101819055508173ffffffffffffffffffffffffffffffffffffffff16600073ffffffffffffffffffffffffffffffffffffffff16867f0ba83579a0e79193ef649b9f5a8759d35af086ba62a3e207b52e4a8ae30d49e360405160405180910390a45050505050565b81610575610ddc565b73ffffffffffffffffffffffffffffffffffffffff166002600083815260200190815260200160002060000160009054906101000a900473ffffffffffffffffffffffffffffffffffffffff1673ffffffffffffffffffffffffffffffffffffffff161461060f576040517fbb9bf27800000000000000000000000000000000000000000000000000000000815260040160405180910390fd5b6106198383610de4565b600061062484610d01565b9050426002600086815260200190815260200160002060020160008381526020019081526020016000208190555050505050565b85610661610ddc565b73ffffffffffffffffffffffffffffffffffffffff166002600083815260200190815260200160002060000160009054906101000a900473ffffffffffffffffffffffffffffffffffffffff1673ffffffffffffffffffffffffffffffffffffffff16146106fb576040517fbb9bf27800000000000000000000000000000000000000000000000000000000815260040160405180910390fd5b610709878787878787611063565b50505050505050565b8161071b610ddc565b73ffffffffffffffffffffffffffffffffffffffff166002600083815260200190815260200160002060000160009054906101000a900473ffffffffffffffffffffffffffffffffffffffff1673ffffffffffffffffffffffffffffffffffffffff16146107b5576040517fbb9bf27800000000000000000000000000000000000000000000000000000000815260040160405180910390fd5b816002600085815260200190815260200160002060000160006101000a81548173ffffffffffffffffffffffffffffffffffffffff021916908373ffffffffffffffffffffffffffffffffffffffff1602179055508173ffffffffffffffffffffffffffffffffffffffff16610829610ddc565b73ffffffffffffffffffffffffffffffffffffffff16847f0ba83579a0e79193ef649b9f5a8759d35af086ba62a3e207b52e4a8ae30d49e360405160405180910390a4505050565b6000806000838152602001908152602001600020600201549050919050565b6000806000838152602001908152602001600020600001549050919050565b60006108ba87610d01565b905060008114156108f7576040517f029f057900000000000000000000000000000000000000000000000000000000815260040160405180910390fd5b8086146109c85760006002600089815260200190815260200160002060020160008881526020019081526020016000205490506000600260008a81526020019081526020016000206001015490506000821415610980576040517f4d32958600000000000000000000000000000000000000000000000000000000815260040160405180910390fd5b808261098c9190612277565b4211156109c5576040517f9581a99000000000000000000000000000000000000000000000000000000000815260040160405180910390fd5b50505b60026000888152602001908152602001600020600301600085815260200190815260200160002060009054906101000a900460ff1615610a34576040517f948d067400000000000000000000000000000000000000000000000000000000815260040160405180910390fd5b6000610a3f88610890565b905060006001600083815260200190815260200160002060009054906101000a900473ffffffffffffffffffffffffffffffffffffffff169050610a8787898888888661118b565b6001600260008b8152602001908152602001600020600301600088815260200190815260200160002060006101000a81548160ff021916908315150217905550887f708a95ee10fd07b9e300c13f6ad7eb0bf8f6a7b3d54c727320f9e7dfdb1296fd8988888b604051610afd949392919061210b565b60405180910390a2505050505050505050565b60026020528060005260406000206000915090508060000160009054906101000a900473ffffffffffffffffffffffffffffffffffffffff16908060010154905082565b83600073ffffffffffffffffffffffffffffffffffffffff166001600083815260200190815260200160002060009054906101000a900473ffffffffffffffffffffffffffffffffffffffff1673ffffffffffffffffffffffffffffffffffffffff161415610bef576040517fecf64f1200000000000000000000000000000000000000000000000000000000815260040160405180910390fd5b610bfa868686610f0b565b826002600088815260200190815260200160002060000160006101000a81548173ffffffffffffffffffffffffffffffffffffffff021916908373ffffffffffffffffffffffffffffffffffffffff1602179055508160026000888152602001908152602001600020600101819055508273ffffffffffffffffffffffffffffffffffffffff16600073ffffffffffffffffffffffffffffffffffffffff16877f0ba83579a0e79193ef649b9f5a8759d35af086ba62a3e207b52e4a8ae30d49e360405160405180910390a4505050505050565b60016020528060005260406000206000915054906101000a900473ffffffffffffffffffffffffffffffffffffffff1681565b6000806000838152602001908152602001600020600101549050919050565b86610d29610ddc565b73ffffffffffffffffffffffffffffffffffffffff166002600083815260200190815260200160002060000160009054906101000a900473ffffffffffffffffffffffffffffffffffffffff1673ffffffffffffffffffffffffffffffffffffffff1614610dc3576040517fbb9bf27800000000000000000000000000000000000000000000000000000000815260040160405180910390fd5b610dd288888888888888611484565b5050505050505050565b600033905090565b6000610def83610890565b1415610e27576040517f029f057900000000000000000000000000000000000000000000000000000000815260040160405180910390fd5b60008083815260200190815260200160002073__$0c6eb7207c37accf1552a1c47686411ac0$__63168703fa9091836040518363ffffffff1660e01b8152600401610e73929190611f74565b60006040518083038186803b158015610e8b57600080fd5b505af4158015610e9f573d6000803e3d6000fd5b505050506000610eae83610d01565b905060006001610ebd85610871565b610ec79190612327565b9050837f19239b3f93cd10558aaf11423af70c77763bf54f52bcc75bfa74d4d13548cde9828585604051610efd939291906120d4565b60405180910390a250505050565b7f30644e72e131a029b85045b68181585d2833e84879b9709143e1f593f00000018310610f64576040517fa61c78ca00000000000000000000000000000000000000000000000000000000815260040160405180910390fd5b6000610f6f84610890565b14610fa6576040517f8121725b00000000000000000000000000000000000000000000000000000000815260040160405180910390fd5b60008084815260200190815260200160002073__$0c6eb7207c37accf1552a1c47686411ac0$__631095fbb4909184846040518463ffffffff1660e01b8152600401610ff493929190611ff4565b60006040518083038186803b15801561100c57600080fd5b505af4158015611020573d6000803e3d6000fd5b50505050827f0d000126c26c1bbe400fd2332187f75d58b69306f9ec47b408686189d3a0083383836040516110569291906120ab565b60405180910390a2505050565b600061106e87610d01565b14156110a6576040517f029f057900000000000000000000000000000000000000000000000000000000815260040160405180910390fd5b60008087815260200190815260200160002073__$0c6eb7207c37accf1552a1c47686411ac0$__630629596f909187878787876040518763ffffffff1660e01b81526004016110fa96959493929190611f9d565b60006040518083038186803b15801561111257600080fd5b505af4158015611126573d6000803e3d6000fd5b50505050600061113587610d01565b9050600061114384846115b1565b9050877f3108849c053c77b8073a11256dffb5ffd5b55e93e105a355e1c9061db890d871828985604051611179939291906120d4565b60405180910390a25050505050505050565b6000611196876116e0565b90508173ffffffffffffffffffffffffffffffffffffffff16635fe8c13b6040518060400160405280866000600881106111f9577f4e487b7100000000000000000000000000000000000000000000000000000000600052603260045260246000fd5b602002013581526020018660016008811061123d577f4e487b7100000000000000000000000000000000000000000000000000000000600052603260045260246000fd5b60200201358152506040518060400160405280604051806040016040528089600260088110611295577f4e487b7100000000000000000000000000000000000000000000000000000000600052603260045260246000fd5b60200201358152602001896003600881106112d9577f4e487b7100000000000000000000000000000000000000000000000000000000600052603260045260246000fd5b6020020135815250815260200160405180604001604052808960046008811061132b577f4e487b7100000000000000000000000000000000000000000000000000000000600052603260045260246000fd5b602002013581526020018960056008811061136f577f4e487b7100000000000000000000000000000000000000000000000000000000600052603260045260246000fd5b60200201358152508152506040518060400160405280886006600881106113bf577f4e487b7100000000000000000000000000000000000000000000000000000000600052603260045260246000fd5b6020020135815260200188600760088110611403577f4e487b7100000000000000000000000000000000000000000000000000000000600052603260045260246000fd5b602002013581525060405180608001604052808c81526020018b81526020018781526020018a8152506040518563ffffffff1660e01b815260040161144b9493929190611f12565b60006040518083038186803b15801561146357600080fd5b505afa158015611477573d6000803e3d6000fd5b5050505050505050505050565b600061148f88610d01565b14156114c7576040517f029f057900000000000000000000000000000000000000000000000000000000815260040160405180910390fd5b60008088815260200190815260200160002073__$0c6eb7207c37accf1552a1c47686411ac0$__63a547882790918888888888886040518863ffffffff1660e01b815260040161151d979695949392919061202b565b60006040518083038186803b15801561153557600080fd5b505af4158015611549573d6000803e3d6000fd5b50505050600061155888610d01565b9050600061156684846115b1565b9050887fea3588e4a2a0c93d6a0e69dfeaf7496f43ccccf02ad9ce0a5b7627cbca4b61b1828a8a8660405161159e9493929190612150565b60405180910390a2505050505050505050565b6000806000905060008484905090505b60008160ff1611156116d557600082118061163c5750600085856001846115e8919061235b565b60ff16818110611621577f4e487b7100000000000000000000000000000000000000000000000000000000600052603260045260246000fd5b90506020020160208101906116369190611bc5565b60ff1614155b156116c95760028261164e91906122cd565b915060018585600184611661919061235b565b60ff1681811061169a577f4e487b7100000000000000000000000000000000000000000000000000000000600052603260045260246000fd5b90506020020160208101906116af9190611bc5565b60ff1614156116c8576001826116c59190612277565b91505b5b806001900390506115c1565b508091505092915050565b60006008826040516020016116f59190611ece565b6040516020818303038152906040528051906020012060001c901c9050919050565b6000813590506117268161244e565b92915050565b60008190508260206008028201111561174457600080fd5b92915050565b60008083601f84011261175c57600080fd5b8235905067ffffffffffffffff81111561177557600080fd5b60208301915083602082028301111561178d57600080fd5b9250929050565b60008083601f8401126117a657600080fd5b8235905067ffffffffffffffff8111156117bf57600080fd5b6020830191508360208202830111156117d757600080fd5b9250929050565b6000813590506117ed81612465565b92915050565b6000813590506118028161247c565b92915050565b60008135905061181781612493565b92915050565b60006020828403121561182f57600080fd5b600061183d848285016117f3565b91505092915050565b6000806040838503121561185957600080fd5b6000611867858286016117f3565b925050602061187885828601611717565b9150509250929050565b60008060006040848603121561189757600080fd5b60006118a5868287016117f3565b935050602084013567ffffffffffffffff8111156118c257600080fd5b6118ce8682870161174a565b92509250509250925092565b600080604083850312156118ed57600080fd5b60006118fb858286016117f3565b925050602061190c858286016117f3565b9150509250929050565b6000806000806000806080878903121561192f57600080fd5b600061193d89828a016117f3565b965050602061194e89828a016117f3565b955050604087013567ffffffffffffffff81111561196b57600080fd5b61197789828a0161174a565b9450945050606087013567ffffffffffffffff81111561199657600080fd5b6119a289828a01611794565b92509250509295509295509295565b6000806000806000806101a087890312156119cb57600080fd5b60006119d989828a016117f3565b96505060206119ea89828a016117f3565b95505060406119fb89828a016117de565b9450506060611a0c89828a016117f3565b9350506080611a1d89828a016117f3565b92505060a0611a2e89828a0161172c565b9150509295509295509295565b60008060008060808587031215611a5157600080fd5b6000611a5f878288016117f3565b9450506020611a70878288016117f3565b9350506040611a81878288016117f3565b9250506060611a9287828801611717565b91505092959194509250565b600080600080600060a08688031215611ab657600080fd5b6000611ac4888289016117f3565b9550506020611ad5888289016117f3565b9450506040611ae6888289016117f3565b9350506060611af788828901611717565b9250506080611b08888289016117f3565b9150509295509295909350565b600080600080600080600060a0888a031215611b3057600080fd5b6000611b3e8a828b016117f3565b9750506020611b4f8a828b016117f3565b9650506040611b608a828b016117f3565b955050606088013567ffffffffffffffff811115611b7d57600080fd5b611b898a828b0161174a565b9450945050608088013567ffffffffffffffff811115611ba857600080fd5b611bb48a828b01611794565b925092505092959891949750929550565b600060208284031215611bd757600080fd5b6000611be584828501611808565b91505092915050565b6000611bfa8383611c9c565b60408301905092915050565b6000611c128383611e92565b60208301905092915050565b6000611c2a8383611ebf565b60208301905092915050565b611c3f8161238f565b82525050565b611c4e816121bd565b611c588184612212565b9250611c6382612195565b8060005b83811015611c94578151611c7b8782611bee565b9650611c86836121de565b925050600181019050611c67565b505050505050565b611ca5816121c8565b611caf818461221d565b9250611cba8261219f565b8060005b83811015611ceb578151611cd28782611c06565b9650611cdd836121eb565b925050600181019050611cbe565b505050505050565b611cfc816121c8565b611d068184612228565b9250611d118261219f565b8060005b83811015611d42578151611d298782611c06565b9650611d34836121eb565b925050600181019050611d15565b505050505050565b611d53816121d3565b611d5d8184612233565b9250611d68826121a9565b8060005b83811015611d99578151611d808782611c06565b9650611d8b836121f8565b925050600181019050611d6c565b505050505050565b6000611dad838561223e565b93507f07ffffffffffffffffffffffffffffffffffffffffffffffffffffffffffffff831115611ddc57600080fd5b602083029250611ded838584612406565b82840190509392505050565b6000611e05838561224f565b9350611e10826121b3565b8060005b85811015611e4957611e268284612260565b611e308882611c1e565b9750611e3b83612205565b925050600181019050611e14565b5085925050509392505050565b611e5f816123a1565b82525050565b611e76611e71826123a1565b612415565b82525050565b611e85816123e2565b82525050565b8082525050565b611e9b816123cb565b82525050565b611eaa816123cb565b82525050565b611eb9816123cb565b82525050565b611ec8816123d5565b82525050565b6000611eda8284611e65565b60208201915081905092915050565b6000604082019050611efe6000830185611c36565b611f0b6020830184611ea1565b9392505050565b600061018082019050611f286000830187611cf3565b611f356040830186611c45565b611f4260c0830185611cf3565b611f50610100830184611d4a565b95945050505050565b6000602082019050611f6e6000830184611e7c565b92915050565b6000604082019050611f896000830185611e8b565b611f966020830184611eb0565b9392505050565b6000608082019050611fb26000830189611e8b565b611fbf6020830188611eb0565b8181036040830152611fd2818688611da1565b90508181036060830152611fe7818486611df9565b9050979650505050505050565b60006060820190506120096000830186611e8b565b6120166020830185611eb0565b6120236040830184611eb0565b949350505050565b600060a082019050612040600083018a611e8b565b61204d6020830189611eb0565b61205a6040830188611eb0565b818103606083015261206d818688611da1565b90508181036080830152612082818486611df9565b905098975050505050505050565b60006020820190506120a56000830184611ea1565b92915050565b60006040820190506120c06000830185611ea1565b6120cd6020830184611ea1565b9392505050565b60006060820190506120e96000830186611ea1565b6120f66020830185611ea1565b6121036040830184611ea1565b949350505050565b60006080820190506121206000830187611ea1565b61212d6020830186611ea1565b61213a6040830185611ea1565b6121476060830184611e56565b95945050505050565b60006080820190506121656000830187611ea1565b6121726020830186611ea1565b61217f6040830185611ea1565b61218c6060830184611ea1565b95945050505050565b6000819050919050565b6000819050919050565b6000819050919050565b6000819050919050565b600060029050919050565b600060029050919050565b600060049050919050565b6000602082019050919050565b6000602082019050919050565b6000602082019050919050565b6000602082019050919050565b600081905092915050565b600081905092915050565b600081905092915050565b600081905092915050565b600082825260208201905092915050565b600082825260208201905092915050565b600061226f6020840184611808565b905092915050565b6000612282826123cb565b915061228d836123cb565b9250827fffffffffffffffffffffffffffffffffffffffffffffffffffffffffffffffff038211156122c2576122c161241f565b5b828201905092915050565b60006122d8826123cb565b91506122e3836123cb565b9250817fffffffffffffffffffffffffffffffffffffffffffffffffffffffffffffffff048311821515161561231c5761231b61241f565b5b828202905092915050565b6000612332826123cb565b915061233d836123cb565b9250828210156123505761234f61241f565b5b828203905092915050565b6000612366826123d5565b9150612371836123d5565b9250828210156123845761238361241f565b5b828203905092915050565b600061239a826123ab565b9050919050565b6000819050919050565b600073ffffffffffffffffffffffffffffffffffffffff82169050919050565b6000819050919050565b600060ff82169050919050565b60006123ed826123f4565b9050919050565b60006123ff826123ab565b9050919050565b82818337600083830152505050565b6000819050919050565b7f4e487b7100000000000000000000000000000000000000000000000000000000600052601160045260246000fd5b6124578161238f565b811461246257600080fd5b50565b61246e816123a1565b811461247957600080fd5b50565b612485816123cb565b811461249057600080fd5b50565b61249c816123d5565b81146124a757600080fd5b5056fea26469706673582212205f659e8c39f7342da4644bc68b0437f7712fc07103a74154ac647dfba4b0123364736f6c63430008040033","opcodes":"PUSH1 0x80 PUSH1 0x40 MSTORE CALLVALUE DUP1 ISZERO PUSH3 0x11 JUMPI PUSH1 0x0 DUP1 REVERT JUMPDEST POP PUSH1 0x40 MLOAD PUSH3 0x28D5 CODESIZE SUB DUP1 PUSH3 0x28D5 DUP4 CODECOPY DUP2 DUP2 ADD PUSH1 0x40 MSTORE DUP2 ADD SWAP1 PUSH3 0x37 SWAP2 SWAP1 PUSH3 0x260 JUMP JUMPDEST PUSH1 0x0 JUMPDEST DUP2 MLOAD DUP2 PUSH1 0xFF AND LT ISZERO PUSH3 0x135 JUMPI DUP2 DUP2 PUSH1 0xFF AND DUP2 MLOAD DUP2 LT PUSH3 0x84 JUMPI PUSH32 0x4E487B7100000000000000000000000000000000000000000000000000000000 PUSH1 0x0 MSTORE PUSH1 0x32 PUSH1 0x4 MSTORE PUSH1 0x24 PUSH1 0x0 REVERT JUMPDEST PUSH1 0x20 MUL PUSH1 0x20 ADD ADD MLOAD PUSH1 0x0 ADD MLOAD PUSH1 0x1 PUSH1 0x0 DUP5 DUP5 PUSH1 0xFF AND DUP2 MLOAD DUP2 LT PUSH3 0xD1 JUMPI PUSH32 0x4E487B7100000000000000000000000000000000000000000000000000000000 PUSH1 0x0 MSTORE PUSH1 0x32 PUSH1 0x4 MSTORE PUSH1 0x24 PUSH1 0x0 REVERT JUMPDEST PUSH1 0x20 MUL PUSH1 0x20 ADD ADD MLOAD PUSH1 0x20 ADD MLOAD DUP2 MSTORE PUSH1 0x20 ADD SWAP1 DUP2 MSTORE PUSH1 0x20 ADD PUSH1 0x0 KECCAK256 PUSH1 0x0 PUSH2 0x100 EXP DUP2 SLOAD DUP2 PUSH20 0xFFFFFFFFFFFFFFFFFFFFFFFFFFFFFFFFFFFFFFFF MUL NOT AND SWAP1 DUP4 PUSH20 0xFFFFFFFFFFFFFFFFFFFFFFFFFFFFFFFFFFFFFFFF AND MUL OR SWAP1 SSTORE POP DUP1 PUSH1 0x1 ADD SWAP1 POP PUSH3 0x3A JUMP JUMPDEST POP POP PUSH3 0x3E5 JUMP JUMPDEST PUSH1 0x0 PUSH3 0x154 PUSH3 0x14E DUP5 PUSH3 0x2CE JUMP JUMPDEST PUSH3 0x2A5 JUMP JUMPDEST SWAP1 POP DUP1 DUP4 DUP3 MSTORE PUSH1 0x20 DUP3 ADD SWAP1 POP DUP3 DUP6 PUSH1 0x40 DUP7 MUL DUP3 ADD GT ISZERO PUSH3 0x174 JUMPI PUSH1 0x0 DUP1 REVERT JUMPDEST PUSH1 0x0 JUMPDEST DUP6 DUP2 LT ISZERO PUSH3 0x1A8 JUMPI DUP2 PUSH3 0x18D DUP9 DUP3 PUSH3 0x1F6 JUMP JUMPDEST DUP5 MSTORE PUSH1 0x20 DUP5 ADD SWAP4 POP PUSH1 0x40 DUP4 ADD SWAP3 POP POP PUSH1 0x1 DUP2 ADD SWAP1 POP PUSH3 0x177 JUMP JUMPDEST POP POP POP SWAP4 SWAP3 POP POP POP JUMP JUMPDEST PUSH1 0x0 DUP2 MLOAD SWAP1 POP PUSH3 0x1C3 DUP2 PUSH3 0x3B1 JUMP JUMPDEST SWAP3 SWAP2 POP POP JUMP JUMPDEST PUSH1 0x0 DUP3 PUSH1 0x1F DUP4 ADD SLT PUSH3 0x1DB JUMPI PUSH1 0x0 DUP1 REVERT JUMPDEST DUP2 MLOAD PUSH3 0x1ED DUP5 DUP3 PUSH1 0x20 DUP7 ADD PUSH3 0x13D JUMP JUMPDEST SWAP2 POP POP SWAP3 SWAP2 POP POP JUMP JUMPDEST PUSH1 0x0 PUSH1 0x40 DUP3 DUP5 SUB SLT ISZERO PUSH3 0x209 JUMPI PUSH1 0x0 DUP1 REVERT JUMPDEST PUSH3 0x215 PUSH1 0x40 PUSH3 0x2A5 JUMP JUMPDEST SWAP1 POP PUSH1 0x0 PUSH3 0x227 DUP5 DUP3 DUP6 ADD PUSH3 0x1B2 JUMP JUMPDEST PUSH1 0x0 DUP4 ADD MSTORE POP PUSH1 0x20 PUSH3 0x23D DUP5 DUP3 DUP6 ADD PUSH3 0x249 JUMP JUMPDEST PUSH1 0x20 DUP4 ADD MSTORE POP SWAP3 SWAP2 POP POP JUMP JUMPDEST PUSH1 0x0 DUP2 MLOAD SWAP1 POP PUSH3 0x25A DUP2 PUSH3 0x3CB JUMP JUMPDEST SWAP3 SWAP2 POP POP JUMP JUMPDEST PUSH1 0x0 PUSH1 0x20 DUP3 DUP5 SUB SLT ISZERO PUSH3 0x273 JUMPI PUSH1 0x0 DUP1 REVERT JUMPDEST PUSH1 0x0 DUP3 ADD MLOAD PUSH8 0xFFFFFFFFFFFFFFFF DUP2 GT ISZERO PUSH3 0x28E JUMPI PUSH1 0x0 DUP1 REVERT JUMPDEST PUSH3 0x29C DUP5 DUP3 DUP6 ADD PUSH3 0x1C9 JUMP JUMPDEST SWAP2 POP POP SWAP3 SWAP2 POP POP JUMP JUMPDEST PUSH1 0x0 PUSH3 0x2B1 PUSH3 0x2C4 JUMP JUMPDEST SWAP1 POP PUSH3 0x2BF DUP3 DUP3 PUSH3 0x33B JUMP JUMPDEST SWAP2 SWAP1 POP JUMP JUMPDEST PUSH1 0x0 PUSH1 0x40 MLOAD SWAP1 POP SWAP1 JUMP JUMPDEST PUSH1 0x0 PUSH8 0xFFFFFFFFFFFFFFFF DUP3 GT ISZERO PUSH3 0x2EC JUMPI PUSH3 0x2EB PUSH3 0x371 JUMP JUMPDEST JUMPDEST PUSH1 0x20 DUP3 MUL SWAP1 POP PUSH1 0x20 DUP2 ADD SWAP1 POP SWAP2 SWAP1 POP JUMP JUMPDEST PUSH1 0x0 PUSH3 0x30A DUP3 PUSH3 0x311 JUMP JUMPDEST SWAP1 POP SWAP2 SWAP1 POP JUMP JUMPDEST PUSH1 0x0 PUSH20 0xFFFFFFFFFFFFFFFFFFFFFFFFFFFFFFFFFFFFFFFF DUP3 AND SWAP1 POP SWAP2 SWAP1 POP JUMP JUMPDEST PUSH1 0x0 DUP2 SWAP1 POP SWAP2 SWAP1 POP JUMP JUMPDEST PUSH3 0x346 DUP3 PUSH3 0x3A0 JUMP JUMPDEST DUP2 ADD DUP2 DUP2 LT PUSH8 0xFFFFFFFFFFFFFFFF DUP3 GT OR ISZERO PUSH3 0x368 JUMPI PUSH3 0x367 PUSH3 0x371 JUMP JUMPDEST JUMPDEST DUP1 PUSH1 0x40 MSTORE POP POP POP JUMP JUMPDEST PUSH32 0x4E487B7100000000000000000000000000000000000000000000000000000000 PUSH1 0x0 MSTORE PUSH1 0x41 PUSH1 0x4 MSTORE PUSH1 0x24 PUSH1 0x0 REVERT JUMPDEST PUSH1 0x0 PUSH1 0x1F NOT PUSH1 0x1F DUP4 ADD AND SWAP1 POP SWAP2 SWAP1 POP JUMP JUMPDEST PUSH3 0x3BC DUP2 PUSH3 0x2FD JUMP JUMPDEST DUP2 EQ PUSH3 0x3C8 JUMPI PUSH1 0x0 DUP1 REVERT JUMPDEST POP JUMP JUMPDEST PUSH3 0x3D6 DUP2 PUSH3 0x331 JUMP JUMPDEST DUP2 EQ PUSH3 0x3E2 JUMPI PUSH1 0x0 DUP1 REVERT JUMPDEST POP JUMP JUMPDEST PUSH2 0x24E0 DUP1 PUSH3 0x3F5 PUSH1 0x0 CODECOPY PUSH1 0x0 RETURN INVALID PUSH1 0x80 PUSH1 0x40 MSTORE CALLVALUE DUP1 ISZERO PUSH2 0x10 JUMPI PUSH1 0x0 DUP1 REVERT JUMPDEST POP PUSH1 0x4 CALLDATASIZE LT PUSH2 0xCF JUMPI PUSH1 0x0 CALLDATALOAD PUSH1 0xE0 SHR DUP1 PUSH4 0x6389E107 GT PUSH2 0x8C JUMPI DUP1 PUSH4 0xAA524E2C GT PUSH2 0x66 JUMPI DUP1 PUSH4 0xAA524E2C EQ PUSH2 0x20D JUMPI DUP1 PUSH4 0xAC1EFF68 EQ PUSH2 0x229 JUMPI DUP1 PUSH4 0xDABC4D51 EQ PUSH2 0x259 JUMPI DUP1 PUSH4 0xEC45622A EQ PUSH2 0x289 JUMPI PUSH2 0xCF JUMP JUMPDEST DUP1 PUSH4 0x6389E107 EQ PUSH2 0x190 JUMPI DUP1 PUSH4 0x8B69310A EQ PUSH2 0x1C0 JUMPI DUP1 PUSH4 0x96324BD4 EQ PUSH2 0x1DC JUMPI PUSH2 0xCF JUMP JUMPDEST DUP1 PUSH4 0x4245371 EQ PUSH2 0xD4 JUMPI DUP1 PUSH4 0x59F1BB5 EQ PUSH2 0xF0 JUMPI DUP1 PUSH4 0x1783EFC3 EQ PUSH2 0x10C JUMPI DUP1 PUSH4 0x43989F85 EQ PUSH2 0x128 JUMPI DUP1 PUSH4 0x568EE826 EQ PUSH2 0x144 JUMPI DUP1 PUSH4 0x638480BE EQ PUSH2 0x160 JUMPI JUMPDEST PUSH1 0x0 DUP1 REVERT JUMPDEST PUSH2 0xEE PUSH1 0x4 DUP1 CALLDATASIZE SUB DUP2 ADD SWAP1 PUSH2 0xE9 SWAP2 SWAP1 PUSH2 0x1882 JUMP JUMPDEST PUSH2 0x2A5 JUMP JUMPDEST STOP JUMPDEST PUSH2 0x10A PUSH1 0x4 DUP1 CALLDATASIZE SUB DUP2 ADD SWAP1 PUSH2 0x105 SWAP2 SWAP1 PUSH2 0x1A3B JUMP JUMPDEST PUSH2 0x3F1 JUMP JUMPDEST STOP JUMPDEST PUSH2 0x126 PUSH1 0x4 DUP1 CALLDATASIZE SUB DUP2 ADD SWAP1 PUSH2 0x121 SWAP2 SWAP1 PUSH2 0x18DA JUMP JUMPDEST PUSH2 0x56C JUMP JUMPDEST STOP JUMPDEST PUSH2 0x142 PUSH1 0x4 DUP1 CALLDATASIZE SUB DUP2 ADD SWAP1 PUSH2 0x13D SWAP2 SWAP1 PUSH2 0x1916 JUMP JUMPDEST PUSH2 0x658 JUMP JUMPDEST STOP JUMPDEST PUSH2 0x15E PUSH1 0x4 DUP1 CALLDATASIZE SUB DUP2 ADD SWAP1 PUSH2 0x159 SWAP2 SWAP1 PUSH2 0x1846 JUMP JUMPDEST PUSH2 0x712 JUMP JUMPDEST STOP JUMPDEST PUSH2 0x17A PUSH1 0x4 DUP1 CALLDATASIZE SUB DUP2 ADD SWAP1 PUSH2 0x175 SWAP2 SWAP1 PUSH2 0x181D JUMP JUMPDEST PUSH2 0x871 JUMP JUMPDEST PUSH1 0x40 MLOAD PUSH2 0x187 SWAP2 SWAP1 PUSH2 0x2090 JUMP JUMPDEST PUSH1 0x40 MLOAD DUP1 SWAP2 SUB SWAP1 RETURN JUMPDEST PUSH2 0x1AA PUSH1 0x4 DUP1 CALLDATASIZE SUB DUP2 ADD SWAP1 PUSH2 0x1A5 SWAP2 SWAP1 PUSH2 0x181D JUMP JUMPDEST PUSH2 0x890 JUMP JUMPDEST PUSH1 0x40 MLOAD PUSH2 0x1B7 SWAP2 SWAP1 PUSH2 0x2090 JUMP JUMPDEST PUSH1 0x40 MLOAD DUP1 SWAP2 SUB SWAP1 RETURN JUMPDEST PUSH2 0x1DA PUSH1 0x4 DUP1 CALLDATASIZE SUB DUP2 ADD SWAP1 PUSH2 0x1D5 SWAP2 SWAP1 PUSH2 0x19B1 JUMP JUMPDEST PUSH2 0x8AF JUMP JUMPDEST STOP JUMPDEST PUSH2 0x1F6 PUSH1 0x4 DUP1 CALLDATASIZE SUB DUP2 ADD SWAP1 PUSH2 0x1F1 SWAP2 SWAP1 PUSH2 0x181D JUMP JUMPDEST PUSH2 0xB10 JUMP JUMPDEST PUSH1 0x40 MLOAD PUSH2 0x204 SWAP3 SWAP2 SWAP1 PUSH2 0x1EE9 JUMP JUMPDEST PUSH1 0x40 MLOAD DUP1 SWAP2 SUB SWAP1 RETURN JUMPDEST PUSH2 0x227 PUSH1 0x4 DUP1 CALLDATASIZE SUB DUP2 ADD SWAP1 PUSH2 0x222 SWAP2 SWAP1 PUSH2 0x1A9E JUMP JUMPDEST PUSH2 0xB54 JUMP JUMPDEST STOP JUMPDEST PUSH2 0x243 PUSH1 0x4 DUP1 CALLDATASIZE SUB DUP2 ADD SWAP1 PUSH2 0x23E SWAP2 SWAP1 PUSH2 0x181D JUMP JUMPDEST PUSH2 0xCCE JUMP JUMPDEST PUSH1 0x40 MLOAD PUSH2 0x250 SWAP2 SWAP1 PUSH2 0x1F59 JUMP JUMPDEST PUSH1 0x40 MLOAD DUP1 SWAP2 SUB SWAP1 RETURN JUMPDEST PUSH2 0x273 PUSH1 0x4 DUP1 CALLDATASIZE SUB DUP2 ADD SWAP1 PUSH2 0x26E SWAP2 SWAP1 PUSH2 0x181D JUMP JUMPDEST PUSH2 0xD01 JUMP JUMPDEST PUSH1 0x40 MLOAD PUSH2 0x280 SWAP2 SWAP1 PUSH2 0x2090 JUMP JUMPDEST PUSH1 0x40 MLOAD DUP1 SWAP2 SUB SWAP1 RETURN JUMPDEST PUSH2 0x2A3 PUSH1 0x4 DUP1 CALLDATASIZE SUB DUP2 ADD SWAP1 PUSH2 0x29E SWAP2 SWAP1 PUSH2 0x1B15 JUMP JUMPDEST PUSH2 0xD20 JUMP JUMPDEST STOP JUMPDEST DUP3 PUSH2 0x2AE PUSH2 0xDDC JUMP JUMPDEST PUSH20 0xFFFFFFFFFFFFFFFFFFFFFFFFFFFFFFFFFFFFFFFF AND PUSH1 0x2 PUSH1 0x0 DUP4 DUP2 MSTORE PUSH1 0x20 ADD SWAP1 DUP2 MSTORE PUSH1 0x20 ADD PUSH1 0x0 KECCAK256 PUSH1 0x0 ADD PUSH1 0x0 SWAP1 SLOAD SWAP1 PUSH2 0x100 EXP SWAP1 DIV PUSH20 0xFFFFFFFFFFFFFFFFFFFFFFFFFFFFFFFFFFFFFFFF AND PUSH20 0xFFFFFFFFFFFFFFFFFFFFFFFFFFFFFFFFFFFFFFFF AND EQ PUSH2 0x348 JUMPI PUSH1 0x40 MLOAD PUSH32 0xBB9BF27800000000000000000000000000000000000000000000000000000000 DUP2 MSTORE PUSH1 0x4 ADD PUSH1 0x40 MLOAD DUP1 SWAP2 SUB SWAP1 REVERT JUMPDEST PUSH1 0x0 JUMPDEST DUP4 DUP4 SWAP1 POP DUP2 PUSH1 0xFF AND LT ISZERO PUSH2 0x3B0 JUMPI PUSH2 0x3A5 DUP6 DUP6 DUP6 DUP5 PUSH1 0xFF AND DUP2 DUP2 LT PUSH2 0x399 JUMPI PUSH32 0x4E487B7100000000000000000000000000000000000000000000000000000000 PUSH1 0x0 MSTORE PUSH1 0x32 PUSH1 0x4 MSTORE PUSH1 0x24 PUSH1 0x0 REVERT JUMPDEST SWAP1 POP PUSH1 0x20 MUL ADD CALLDATALOAD PUSH2 0xDE4 JUMP JUMPDEST DUP1 PUSH1 0x1 ADD SWAP1 POP PUSH2 0x34B JUMP JUMPDEST POP PUSH1 0x0 PUSH2 0x3BC DUP6 PUSH2 0xD01 JUMP JUMPDEST SWAP1 POP TIMESTAMP PUSH1 0x2 PUSH1 0x0 DUP8 DUP2 MSTORE PUSH1 0x20 ADD SWAP1 DUP2 MSTORE PUSH1 0x20 ADD PUSH1 0x0 KECCAK256 PUSH1 0x2 ADD PUSH1 0x0 DUP4 DUP2 MSTORE PUSH1 0x20 ADD SWAP1 DUP2 MSTORE PUSH1 0x20 ADD PUSH1 0x0 KECCAK256 DUP2 SWAP1 SSTORE POP POP POP POP POP POP JUMP JUMPDEST DUP3 PUSH1 0x0 PUSH20 0xFFFFFFFFFFFFFFFFFFFFFFFFFFFFFFFFFFFFFFFF AND PUSH1 0x1 PUSH1 0x0 DUP4 DUP2 MSTORE PUSH1 0x20 ADD SWAP1 DUP2 MSTORE PUSH1 0x20 ADD PUSH1 0x0 KECCAK256 PUSH1 0x0 SWAP1 SLOAD SWAP1 PUSH2 0x100 EXP SWAP1 DIV PUSH20 0xFFFFFFFFFFFFFFFFFFFFFFFFFFFFFFFFFFFFFFFF AND PUSH20 0xFFFFFFFFFFFFFFFFFFFFFFFFFFFFFFFFFFFFFFFF AND EQ ISZERO PUSH2 0x48C JUMPI PUSH1 0x40 MLOAD PUSH32 0xECF64F1200000000000000000000000000000000000000000000000000000000 DUP2 MSTORE PUSH1 0x4 ADD PUSH1 0x40 MLOAD DUP1 SWAP2 SUB SWAP1 REVERT JUMPDEST PUSH2 0x497 DUP6 DUP6 DUP6 PUSH2 0xF0B JUMP JUMPDEST DUP2 PUSH1 0x2 PUSH1 0x0 DUP8 DUP2 MSTORE PUSH1 0x20 ADD SWAP1 DUP2 MSTORE PUSH1 0x20 ADD PUSH1 0x0 KECCAK256 PUSH1 0x0 ADD PUSH1 0x0 PUSH2 0x100 EXP DUP2 SLOAD DUP2 PUSH20 0xFFFFFFFFFFFFFFFFFFFFFFFFFFFFFFFFFFFFFFFF MUL NOT AND SWAP1 DUP4 PUSH20 0xFFFFFFFFFFFFFFFFFFFFFFFFFFFFFFFFFFFFFFFF AND MUL OR SWAP1 SSTORE POP PUSH2 0xE10 PUSH1 0x2 PUSH1 0x0 DUP8 DUP2 MSTORE PUSH1 0x20 ADD SWAP1 DUP2 MSTORE PUSH1 0x20 ADD PUSH1 0x0 KECCAK256 PUSH1 0x1 ADD DUP2 SWAP1 SSTORE POP DUP2 PUSH20 0xFFFFFFFFFFFFFFFFFFFFFFFFFFFFFFFFFFFFFFFF AND PUSH1 0x0 PUSH20 0xFFFFFFFFFFFFFFFFFFFFFFFFFFFFFFFFFFFFFFFF AND DUP7 PUSH32 0xBA83579A0E79193EF649B9F5A8759D35AF086BA62A3E207B52E4A8AE30D49E3 PUSH1 0x40 MLOAD PUSH1 0x40 MLOAD DUP1 SWAP2 SUB SWAP1 LOG4 POP POP POP POP POP JUMP JUMPDEST DUP2 PUSH2 0x575 PUSH2 0xDDC JUMP JUMPDEST PUSH20 0xFFFFFFFFFFFFFFFFFFFFFFFFFFFFFFFFFFFFFFFF AND PUSH1 0x2 PUSH1 0x0 DUP4 DUP2 MSTORE PUSH1 0x20 ADD SWAP1 DUP2 MSTORE PUSH1 0x20 ADD PUSH1 0x0 KECCAK256 PUSH1 0x0 ADD PUSH1 0x0 SWAP1 SLOAD SWAP1 PUSH2 0x100 EXP SWAP1 DIV PUSH20 0xFFFFFFFFFFFFFFFFFFFFFFFFFFFFFFFFFFFFFFFF AND PUSH20 0xFFFFFFFFFFFFFFFFFFFFFFFFFFFFFFFFFFFFFFFF AND EQ PUSH2 0x60F JUMPI PUSH1 0x40 MLOAD PUSH32 0xBB9BF27800000000000000000000000000000000000000000000000000000000 DUP2 MSTORE PUSH1 0x4 ADD PUSH1 0x40 MLOAD DUP1 SWAP2 SUB SWAP1 REVERT JUMPDEST PUSH2 0x619 DUP4 DUP4 PUSH2 0xDE4 JUMP JUMPDEST PUSH1 0x0 PUSH2 0x624 DUP5 PUSH2 0xD01 JUMP JUMPDEST SWAP1 POP TIMESTAMP PUSH1 0x2 PUSH1 0x0 DUP7 DUP2 MSTORE PUSH1 0x20 ADD SWAP1 DUP2 MSTORE PUSH1 0x20 ADD PUSH1 0x0 KECCAK256 PUSH1 0x2 ADD PUSH1 0x0 DUP4 DUP2 MSTORE PUSH1 0x20 ADD SWAP1 DUP2 MSTORE PUSH1 0x20 ADD PUSH1 0x0 KECCAK256 DUP2 SWAP1 SSTORE POP POP POP POP POP JUMP JUMPDEST DUP6 PUSH2 0x661 PUSH2 0xDDC JUMP JUMPDEST PUSH20 0xFFFFFFFFFFFFFFFFFFFFFFFFFFFFFFFFFFFFFFFF AND PUSH1 0x2 PUSH1 0x0 DUP4 DUP2 MSTORE PUSH1 0x20 ADD SWAP1 DUP2 MSTORE PUSH1 0x20 ADD PUSH1 0x0 KECCAK256 PUSH1 0x0 ADD PUSH1 0x0 SWAP1 SLOAD SWAP1 PUSH2 0x100 EXP SWAP1 DIV PUSH20 0xFFFFFFFFFFFFFFFFFFFFFFFFFFFFFFFFFFFFFFFF AND PUSH20 0xFFFFFFFFFFFFFFFFFFFFFFFFFFFFFFFFFFFFFFFF AND EQ PUSH2 0x6FB JUMPI PUSH1 0x40 MLOAD PUSH32 0xBB9BF27800000000000000000000000000000000000000000000000000000000 DUP2 MSTORE PUSH1 0x4 ADD PUSH1 0x40 MLOAD DUP1 SWAP2 SUB SWAP1 REVERT JUMPDEST PUSH2 0x709 DUP8 DUP8 DUP8 DUP8 DUP8 DUP8 PUSH2 0x1063 JUMP JUMPDEST POP POP POP POP POP POP POP JUMP JUMPDEST DUP2 PUSH2 0x71B PUSH2 0xDDC JUMP JUMPDEST PUSH20 0xFFFFFFFFFFFFFFFFFFFFFFFFFFFFFFFFFFFFFFFF AND PUSH1 0x2 PUSH1 0x0 DUP4 DUP2 MSTORE PUSH1 0x20 ADD SWAP1 DUP2 MSTORE PUSH1 0x20 ADD PUSH1 0x0 KECCAK256 PUSH1 0x0 ADD PUSH1 0x0 SWAP1 SLOAD SWAP1 PUSH2 0x100 EXP SWAP1 DIV PUSH20 0xFFFFFFFFFFFFFFFFFFFFFFFFFFFFFFFFFFFFFFFF AND PUSH20 0xFFFFFFFFFFFFFFFFFFFFFFFFFFFFFFFFFFFFFFFF AND EQ PUSH2 0x7B5 JUMPI PUSH1 0x40 MLOAD PUSH32 0xBB9BF27800000000000000000000000000000000000000000000000000000000 DUP2 MSTORE PUSH1 0x4 ADD PUSH1 0x40 MLOAD DUP1 SWAP2 SUB SWAP1 REVERT JUMPDEST DUP2 PUSH1 0x2 PUSH1 0x0 DUP6 DUP2 MSTORE PUSH1 0x20 ADD SWAP1 DUP2 MSTORE PUSH1 0x20 ADD PUSH1 0x0 KECCAK256 PUSH1 0x0 ADD PUSH1 0x0 PUSH2 0x100 EXP DUP2 SLOAD DUP2 PUSH20 0xFFFFFFFFFFFFFFFFFFFFFFFFFFFFFFFFFFFFFFFF MUL NOT AND SWAP1 DUP4 PUSH20 0xFFFFFFFFFFFFFFFFFFFFFFFFFFFFFFFFFFFFFFFF AND MUL OR SWAP1 SSTORE POP DUP2 PUSH20 0xFFFFFFFFFFFFFFFFFFFFFFFFFFFFFFFFFFFFFFFF AND PUSH2 0x829 PUSH2 0xDDC JUMP JUMPDEST PUSH20 0xFFFFFFFFFFFFFFFFFFFFFFFFFFFFFFFFFFFFFFFF AND DUP5 PUSH32 0xBA83579A0E79193EF649B9F5A8759D35AF086BA62A3E207B52E4A8AE30D49E3 PUSH1 0x40 MLOAD PUSH1 0x40 MLOAD DUP1 SWAP2 SUB SWAP1 LOG4 POP POP POP JUMP JUMPDEST PUSH1 0x0 DUP1 PUSH1 0x0 DUP4 DUP2 MSTORE PUSH1 0x20 ADD SWAP1 DUP2 MSTORE PUSH1 0x20 ADD PUSH1 0x0 KECCAK256 PUSH1 0x2 ADD SLOAD SWAP1 POP SWAP2 SWAP1 POP JUMP JUMPDEST PUSH1 0x0 DUP1 PUSH1 0x0 DUP4 DUP2 MSTORE PUSH1 0x20 ADD SWAP1 DUP2 MSTORE PUSH1 0x20 ADD PUSH1 0x0 KECCAK256 PUSH1 0x0 ADD SLOAD SWAP1 POP SWAP2 SWAP1 POP JUMP JUMPDEST PUSH1 0x0 PUSH2 0x8BA DUP8 PUSH2 0xD01 JUMP JUMPDEST SWAP1 POP PUSH1 0x0 DUP2 EQ ISZERO PUSH2 0x8F7 JUMPI PUSH1 0x40 MLOAD PUSH32 0x29F057900000000000000000000000000000000000000000000000000000000 DUP2 MSTORE PUSH1 0x4 ADD PUSH1 0x40 MLOAD DUP1 SWAP2 SUB SWAP1 REVERT JUMPDEST DUP1 DUP7 EQ PUSH2 0x9C8 JUMPI PUSH1 0x0 PUSH1 0x2 PUSH1 0x0 DUP10 DUP2 MSTORE PUSH1 0x20 ADD SWAP1 DUP2 MSTORE PUSH1 0x20 ADD PUSH1 0x0 KECCAK256 PUSH1 0x2 ADD PUSH1 0x0 DUP9 DUP2 MSTORE PUSH1 0x20 ADD SWAP1 DUP2 MSTORE PUSH1 0x20 ADD PUSH1 0x0 KECCAK256 SLOAD SWAP1 POP PUSH1 0x0 PUSH1 0x2 PUSH1 0x0 DUP11 DUP2 MSTORE PUSH1 0x20 ADD SWAP1 DUP2 MSTORE PUSH1 0x20 ADD PUSH1 0x0 KECCAK256 PUSH1 0x1 ADD SLOAD SWAP1 POP PUSH1 0x0 DUP3 EQ ISZERO PUSH2 0x980 JUMPI PUSH1 0x40 MLOAD PUSH32 0x4D32958600000000000000000000000000000000000000000000000000000000 DUP2 MSTORE PUSH1 0x4 ADD PUSH1 0x40 MLOAD DUP1 SWAP2 SUB SWAP1 REVERT JUMPDEST DUP1 DUP3 PUSH2 0x98C SWAP2 SWAP1 PUSH2 0x2277 JUMP JUMPDEST TIMESTAMP GT ISZERO PUSH2 0x9C5 JUMPI PUSH1 0x40 MLOAD PUSH32 0x9581A99000000000000000000000000000000000000000000000000000000000 DUP2 MSTORE PUSH1 0x4 ADD PUSH1 0x40 MLOAD DUP1 SWAP2 SUB SWAP1 REVERT JUMPDEST POP POP JUMPDEST PUSH1 0x2 PUSH1 0x0 DUP9 DUP2 MSTORE PUSH1 0x20 ADD SWAP1 DUP2 MSTORE PUSH1 0x20 ADD PUSH1 0x0 KECCAK256 PUSH1 0x3 ADD PUSH1 0x0 DUP6 DUP2 MSTORE PUSH1 0x20 ADD SWAP1 DUP2 MSTORE PUSH1 0x20 ADD PUSH1 0x0 KECCAK256 PUSH1 0x0 SWAP1 SLOAD SWAP1 PUSH2 0x100 EXP SWAP1 DIV PUSH1 0xFF AND ISZERO PUSH2 0xA34 JUMPI PUSH1 0x40 MLOAD PUSH32 0x948D067400000000000000000000000000000000000000000000000000000000 DUP2 MSTORE PUSH1 0x4 ADD PUSH1 0x40 MLOAD DUP1 SWAP2 SUB SWAP1 REVERT JUMPDEST PUSH1 0x0 PUSH2 0xA3F DUP9 PUSH2 0x890 JUMP JUMPDEST SWAP1 POP PUSH1 0x0 PUSH1 0x1 PUSH1 0x0 DUP4 DUP2 MSTORE PUSH1 0x20 ADD SWAP1 DUP2 MSTORE PUSH1 0x20 ADD PUSH1 0x0 KECCAK256 PUSH1 0x0 SWAP1 SLOAD SWAP1 PUSH2 0x100 EXP SWAP1 DIV PUSH20 0xFFFFFFFFFFFFFFFFFFFFFFFFFFFFFFFFFFFFFFFF AND SWAP1 POP PUSH2 0xA87 DUP8 DUP10 DUP9 DUP9 DUP9 DUP7 PUSH2 0x118B JUMP JUMPDEST PUSH1 0x1 PUSH1 0x2 PUSH1 0x0 DUP12 DUP2 MSTORE PUSH1 0x20 ADD SWAP1 DUP2 MSTORE PUSH1 0x20 ADD PUSH1 0x0 KECCAK256 PUSH1 0x3 ADD PUSH1 0x0 DUP9 DUP2 MSTORE PUSH1 0x20 ADD SWAP1 DUP2 MSTORE PUSH1 0x20 ADD PUSH1 0x0 KECCAK256 PUSH1 0x0 PUSH2 0x100 EXP DUP2 SLOAD DUP2 PUSH1 0xFF MUL NOT AND SWAP1 DUP4 ISZERO ISZERO MUL OR SWAP1 SSTORE POP DUP9 PUSH32 0x708A95EE10FD07B9E300C13F6AD7EB0BF8F6A7B3D54C727320F9E7DFDB1296FD DUP10 DUP9 DUP9 DUP12 PUSH1 0x40 MLOAD PUSH2 0xAFD SWAP5 SWAP4 SWAP3 SWAP2 SWAP1 PUSH2 0x210B JUMP JUMPDEST PUSH1 0x40 MLOAD DUP1 SWAP2 SUB SWAP1 LOG2 POP POP POP POP POP POP POP POP POP JUMP JUMPDEST PUSH1 0x2 PUSH1 0x20 MSTORE DUP1 PUSH1 0x0 MSTORE PUSH1 0x40 PUSH1 0x0 KECCAK256 PUSH1 0x0 SWAP2 POP SWAP1 POP DUP1 PUSH1 0x0 ADD PUSH1 0x0 SWAP1 SLOAD SWAP1 PUSH2 0x100 EXP SWAP1 DIV PUSH20 0xFFFFFFFFFFFFFFFFFFFFFFFFFFFFFFFFFFFFFFFF AND SWAP1 DUP1 PUSH1 0x1 ADD SLOAD SWAP1 POP DUP3 JUMP JUMPDEST DUP4 PUSH1 0x0 PUSH20 0xFFFFFFFFFFFFFFFFFFFFFFFFFFFFFFFFFFFFFFFF AND PUSH1 0x1 PUSH1 0x0 DUP4 DUP2 MSTORE PUSH1 0x20 ADD SWAP1 DUP2 MSTORE PUSH1 0x20 ADD PUSH1 0x0 KECCAK256 PUSH1 0x0 SWAP1 SLOAD SWAP1 PUSH2 0x100 EXP SWAP1 DIV PUSH20 0xFFFFFFFFFFFFFFFFFFFFFFFFFFFFFFFFFFFFFFFF AND PUSH20 0xFFFFFFFFFFFFFFFFFFFFFFFFFFFFFFFFFFFFFFFF AND EQ ISZERO PUSH2 0xBEF JUMPI PUSH1 0x40 MLOAD PUSH32 0xECF64F1200000000000000000000000000000000000000000000000000000000 DUP2 MSTORE PUSH1 0x4 ADD PUSH1 0x40 MLOAD DUP1 SWAP2 SUB SWAP1 REVERT JUMPDEST PUSH2 0xBFA DUP7 DUP7 DUP7 PUSH2 0xF0B JUMP JUMPDEST DUP3 PUSH1 0x2 PUSH1 0x0 DUP9 DUP2 MSTORE PUSH1 0x20 ADD SWAP1 DUP2 MSTORE PUSH1 0x20 ADD PUSH1 0x0 KECCAK256 PUSH1 0x0 ADD PUSH1 0x0 PUSH2 0x100 EXP DUP2 SLOAD DUP2 PUSH20 0xFFFFFFFFFFFFFFFFFFFFFFFFFFFFFFFFFFFFFFFF MUL NOT AND SWAP1 DUP4 PUSH20 0xFFFFFFFFFFFFFFFFFFFFFFFFFFFFFFFFFFFFFFFF AND MUL OR SWAP1 SSTORE POP DUP2 PUSH1 0x2 PUSH1 0x0 DUP9 DUP2 MSTORE PUSH1 0x20 ADD SWAP1 DUP2 MSTORE PUSH1 0x20 ADD PUSH1 0x0 KECCAK256 PUSH1 0x1 ADD DUP2 SWAP1 SSTORE POP DUP3 PUSH20 0xFFFFFFFFFFFFFFFFFFFFFFFFFFFFFFFFFFFFFFFF AND PUSH1 0x0 PUSH20 0xFFFFFFFFFFFFFFFFFFFFFFFFFFFFFFFFFFFFFFFF AND DUP8 PUSH32 0xBA83579A0E79193EF649B9F5A8759D35AF086BA62A3E207B52E4A8AE30D49E3 PUSH1 0x40 MLOAD PUSH1 0x40 MLOAD DUP1 SWAP2 SUB SWAP1 LOG4 POP POP POP POP POP POP JUMP JUMPDEST PUSH1 0x1 PUSH1 0x20 MSTORE DUP1 PUSH1 0x0 MSTORE PUSH1 0x40 PUSH1 0x0 KECCAK256 PUSH1 0x0 SWAP2 POP SLOAD SWAP1 PUSH2 0x100 EXP SWAP1 DIV PUSH20 0xFFFFFFFFFFFFFFFFFFFFFFFFFFFFFFFFFFFFFFFF AND DUP2 JUMP JUMPDEST PUSH1 0x0 DUP1 PUSH1 0x0 DUP4 DUP2 MSTORE PUSH1 0x20 ADD SWAP1 DUP2 MSTORE PUSH1 0x20 ADD PUSH1 0x0 KECCAK256 PUSH1 0x1 ADD SLOAD SWAP1 POP SWAP2 SWAP1 POP JUMP JUMPDEST DUP7 PUSH2 0xD29 PUSH2 0xDDC JUMP JUMPDEST PUSH20 0xFFFFFFFFFFFFFFFFFFFFFFFFFFFFFFFFFFFFFFFF AND PUSH1 0x2 PUSH1 0x0 DUP4 DUP2 MSTORE PUSH1 0x20 ADD SWAP1 DUP2 MSTORE PUSH1 0x20 ADD PUSH1 0x0 KECCAK256 PUSH1 0x0 ADD PUSH1 0x0 SWAP1 SLOAD SWAP1 PUSH2 0x100 EXP SWAP1 DIV PUSH20 0xFFFFFFFFFFFFFFFFFFFFFFFFFFFFFFFFFFFFFFFF AND PUSH20 0xFFFFFFFFFFFFFFFFFFFFFFFFFFFFFFFFFFFFFFFF AND EQ PUSH2 0xDC3 JUMPI PUSH1 0x40 MLOAD PUSH32 0xBB9BF27800000000000000000000000000000000000000000000000000000000 DUP2 MSTORE PUSH1 0x4 ADD PUSH1 0x40 MLOAD DUP1 SWAP2 SUB SWAP1 REVERT JUMPDEST PUSH2 0xDD2 DUP9 DUP9 DUP9 DUP9 DUP9 DUP9 DUP9 PUSH2 0x1484 JUMP JUMPDEST POP POP POP POP POP POP POP POP JUMP JUMPDEST PUSH1 0x0 CALLER SWAP1 POP SWAP1 JUMP JUMPDEST PUSH1 0x0 PUSH2 0xDEF DUP4 PUSH2 0x890 JUMP JUMPDEST EQ ISZERO PUSH2 0xE27 JUMPI PUSH1 0x40 MLOAD PUSH32 0x29F057900000000000000000000000000000000000000000000000000000000 DUP2 MSTORE PUSH1 0x4 ADD PUSH1 0x40 MLOAD DUP1 SWAP2 SUB SWAP1 REVERT JUMPDEST PUSH1 0x0 DUP1 DUP4 DUP2 MSTORE PUSH1 0x20 ADD SWAP1 DUP2 MSTORE PUSH1 0x20 ADD PUSH1 0x0 KECCAK256 PUSH20 0x0 PUSH4 0x168703FA SWAP1 SWAP2 DUP4 PUSH1 0x40 MLOAD DUP4 PUSH4 0xFFFFFFFF AND PUSH1 0xE0 SHL DUP2 MSTORE PUSH1 0x4 ADD PUSH2 0xE73 SWAP3 SWAP2 SWAP1 PUSH2 0x1F74 JUMP JUMPDEST PUSH1 0x0 PUSH1 0x40 MLOAD DUP1 DUP4 SUB DUP2 DUP7 DUP1 EXTCODESIZE ISZERO DUP1 ISZERO PUSH2 0xE8B JUMPI PUSH1 0x0 DUP1 REVERT JUMPDEST POP GAS DELEGATECALL ISZERO DUP1 ISZERO PUSH2 0xE9F JUMPI RETURNDATASIZE PUSH1 0x0 DUP1 RETURNDATACOPY RETURNDATASIZE PUSH1 0x0 REVERT JUMPDEST POP POP POP POP PUSH1 0x0 PUSH2 0xEAE DUP4 PUSH2 0xD01 JUMP JUMPDEST SWAP1 POP PUSH1 0x0 PUSH1 0x1 PUSH2 0xEBD DUP6 PUSH2 0x871 JUMP JUMPDEST PUSH2 0xEC7 SWAP2 SWAP1 PUSH2 0x2327 JUMP JUMPDEST SWAP1 POP DUP4 PUSH32 0x19239B3F93CD10558AAF11423AF70C77763BF54F52BCC75BFA74D4D13548CDE9 DUP3 DUP6 DUP6 PUSH1 0x40 MLOAD PUSH2 0xEFD SWAP4 SWAP3 SWAP2 SWAP1 PUSH2 0x20D4 JUMP JUMPDEST PUSH1 0x40 MLOAD DUP1 SWAP2 SUB SWAP1 LOG2 POP POP POP POP JUMP JUMPDEST PUSH32 0x30644E72E131A029B85045B68181585D2833E84879B9709143E1F593F0000001 DUP4 LT PUSH2 0xF64 JUMPI PUSH1 0x40 MLOAD PUSH32 0xA61C78CA00000000000000000000000000000000000000000000000000000000 DUP2 MSTORE PUSH1 0x4 ADD PUSH1 0x40 MLOAD DUP1 SWAP2 SUB SWAP1 REVERT JUMPDEST PUSH1 0x0 PUSH2 0xF6F DUP5 PUSH2 0x890 JUMP JUMPDEST EQ PUSH2 0xFA6 JUMPI PUSH1 0x40 MLOAD PUSH32 0x8121725B00000000000000000000000000000000000000000000000000000000 DUP2 MSTORE PUSH1 0x4 ADD PUSH1 0x40 MLOAD DUP1 SWAP2 SUB SWAP1 REVERT JUMPDEST PUSH1 0x0 DUP1 DUP5 DUP2 MSTORE PUSH1 0x20 ADD SWAP1 DUP2 MSTORE PUSH1 0x20 ADD PUSH1 0x0 KECCAK256 PUSH20 0x0 PUSH4 0x1095FBB4 SWAP1 SWAP2 DUP5 DUP5 PUSH1 0x40 MLOAD DUP5 PUSH4 0xFFFFFFFF AND PUSH1 0xE0 SHL DUP2 MSTORE PUSH1 0x4 ADD PUSH2 0xFF4 SWAP4 SWAP3 SWAP2 SWAP1 PUSH2 0x1FF4 JUMP JUMPDEST PUSH1 0x0 PUSH1 0x40 MLOAD DUP1 DUP4 SUB DUP2 DUP7 DUP1 EXTCODESIZE ISZERO DUP1 ISZERO PUSH2 0x100C JUMPI PUSH1 0x0 DUP1 REVERT JUMPDEST POP GAS DELEGATECALL ISZERO DUP1 ISZERO PUSH2 0x1020 JUMPI RETURNDATASIZE PUSH1 0x0 DUP1 RETURNDATACOPY RETURNDATASIZE PUSH1 0x0 REVERT JUMPDEST POP POP POP POP DUP3 PUSH32 0xD000126C26C1BBE400FD2332187F75D58B69306F9EC47B408686189D3A00833 DUP4 DUP4 PUSH1 0x40 MLOAD PUSH2 0x1056 SWAP3 SWAP2 SWAP1 PUSH2 0x20AB JUMP JUMPDEST PUSH1 0x40 MLOAD DUP1 SWAP2 SUB SWAP1 LOG2 POP POP POP JUMP JUMPDEST PUSH1 0x0 PUSH2 0x106E DUP8 PUSH2 0xD01 JUMP JUMPDEST EQ ISZERO PUSH2 0x10A6 JUMPI PUSH1 0x40 MLOAD PUSH32 0x29F057900000000000000000000000000000000000000000000000000000000 DUP2 MSTORE PUSH1 0x4 ADD PUSH1 0x40 MLOAD DUP1 SWAP2 SUB SWAP1 REVERT JUMPDEST PUSH1 0x0 DUP1 DUP8 DUP2 MSTORE PUSH1 0x20 ADD SWAP1 DUP2 MSTORE PUSH1 0x20 ADD PUSH1 0x0 KECCAK256 PUSH20 0x0 PUSH4 0x629596F SWAP1 SWAP2 DUP8 DUP8 DUP8 DUP8 DUP8 PUSH1 0x40 MLOAD DUP8 PUSH4 0xFFFFFFFF AND PUSH1 0xE0 SHL DUP2 MSTORE PUSH1 0x4 ADD PUSH2 0x10FA SWAP7 SWAP6 SWAP5 SWAP4 SWAP3 SWAP2 SWAP1 PUSH2 0x1F9D JUMP JUMPDEST PUSH1 0x0 PUSH1 0x40 MLOAD DUP1 DUP4 SUB DUP2 DUP7 DUP1 EXTCODESIZE ISZERO DUP1 ISZERO PUSH2 0x1112 JUMPI PUSH1 0x0 DUP1 REVERT JUMPDEST POP GAS DELEGATECALL ISZERO DUP1 ISZERO PUSH2 0x1126 JUMPI RETURNDATASIZE PUSH1 0x0 DUP1 RETURNDATACOPY RETURNDATASIZE PUSH1 0x0 REVERT JUMPDEST POP POP POP POP PUSH1 0x0 PUSH2 0x1135 DUP8 PUSH2 0xD01 JUMP JUMPDEST SWAP1 POP PUSH1 0x0 PUSH2 0x1143 DUP5 DUP5 PUSH2 0x15B1 JUMP JUMPDEST SWAP1 POP DUP8 PUSH32 0x3108849C053C77B8073A11256DFFB5FFD5B55E93E105A355E1C9061DB890D871 DUP3 DUP10 DUP6 PUSH1 0x40 MLOAD PUSH2 0x1179 SWAP4 SWAP3 SWAP2 SWAP1 PUSH2 0x20D4 JUMP JUMPDEST PUSH1 0x40 MLOAD DUP1 SWAP2 SUB SWAP1 LOG2 POP POP POP POP POP POP POP POP JUMP JUMPDEST PUSH1 0x0 PUSH2 0x1196 DUP8 PUSH2 0x16E0 JUMP JUMPDEST SWAP1 POP DUP2 PUSH20 0xFFFFFFFFFFFFFFFFFFFFFFFFFFFFFFFFFFFFFFFF AND PUSH4 0x5FE8C13B PUSH1 0x40 MLOAD DUP1 PUSH1 0x40 ADD PUSH1 0x40 MSTORE DUP1 DUP7 PUSH1 0x0 PUSH1 0x8 DUP2 LT PUSH2 0x11F9 JUMPI PUSH32 0x4E487B7100000000000000000000000000000000000000000000000000000000 PUSH1 0x0 MSTORE PUSH1 0x32 PUSH1 0x4 MSTORE PUSH1 0x24 PUSH1 0x0 REVERT JUMPDEST PUSH1 0x20 MUL ADD CALLDATALOAD DUP2 MSTORE PUSH1 0x20 ADD DUP7 PUSH1 0x1 PUSH1 0x8 DUP2 LT PUSH2 0x123D JUMPI PUSH32 0x4E487B7100000000000000000000000000000000000000000000000000000000 PUSH1 0x0 MSTORE PUSH1 0x32 PUSH1 0x4 MSTORE PUSH1 0x24 PUSH1 0x0 REVERT JUMPDEST PUSH1 0x20 MUL ADD CALLDATALOAD DUP2 MSTORE POP PUSH1 0x40 MLOAD DUP1 PUSH1 0x40 ADD PUSH1 0x40 MSTORE DUP1 PUSH1 0x40 MLOAD DUP1 PUSH1 0x40 ADD PUSH1 0x40 MSTORE DUP1 DUP10 PUSH1 0x2 PUSH1 0x8 DUP2 LT PUSH2 0x1295 JUMPI PUSH32 0x4E487B7100000000000000000000000000000000000000000000000000000000 PUSH1 0x0 MSTORE PUSH1 0x32 PUSH1 0x4 MSTORE PUSH1 0x24 PUSH1 0x0 REVERT JUMPDEST PUSH1 0x20 MUL ADD CALLDATALOAD DUP2 MSTORE PUSH1 0x20 ADD DUP10 PUSH1 0x3 PUSH1 0x8 DUP2 LT PUSH2 0x12D9 JUMPI PUSH32 0x4E487B7100000000000000000000000000000000000000000000000000000000 PUSH1 0x0 MSTORE PUSH1 0x32 PUSH1 0x4 MSTORE PUSH1 0x24 PUSH1 0x0 REVERT JUMPDEST PUSH1 0x20 MUL ADD CALLDATALOAD DUP2 MSTORE POP DUP2 MSTORE PUSH1 0x20 ADD PUSH1 0x40 MLOAD DUP1 PUSH1 0x40 ADD PUSH1 0x40 MSTORE DUP1 DUP10 PUSH1 0x4 PUSH1 0x8 DUP2 LT PUSH2 0x132B JUMPI PUSH32 0x4E487B7100000000000000000000000000000000000000000000000000000000 PUSH1 0x0 MSTORE PUSH1 0x32 PUSH1 0x4 MSTORE PUSH1 0x24 PUSH1 0x0 REVERT JUMPDEST PUSH1 0x20 MUL ADD CALLDATALOAD DUP2 MSTORE PUSH1 0x20 ADD DUP10 PUSH1 0x5 PUSH1 0x8 DUP2 LT PUSH2 0x136F JUMPI PUSH32 0x4E487B7100000000000000000000000000000000000000000000000000000000 PUSH1 0x0 MSTORE PUSH1 0x32 PUSH1 0x4 MSTORE PUSH1 0x24 PUSH1 0x0 REVERT JUMPDEST PUSH1 0x20 MUL ADD CALLDATALOAD DUP2 MSTORE POP DUP2 MSTORE POP PUSH1 0x40 MLOAD DUP1 PUSH1 0x40 ADD PUSH1 0x40 MSTORE DUP1 DUP9 PUSH1 0x6 PUSH1 0x8 DUP2 LT PUSH2 0x13BF JUMPI PUSH32 0x4E487B7100000000000000000000000000000000000000000000000000000000 PUSH1 0x0 MSTORE PUSH1 0x32 PUSH1 0x4 MSTORE PUSH1 0x24 PUSH1 0x0 REVERT JUMPDEST PUSH1 0x20 MUL ADD CALLDATALOAD DUP2 MSTORE PUSH1 0x20 ADD DUP9 PUSH1 0x7 PUSH1 0x8 DUP2 LT PUSH2 0x1403 JUMPI PUSH32 0x4E487B7100000000000000000000000000000000000000000000000000000000 PUSH1 0x0 MSTORE PUSH1 0x32 PUSH1 0x4 MSTORE PUSH1 0x24 PUSH1 0x0 REVERT JUMPDEST PUSH1 0x20 MUL ADD CALLDATALOAD DUP2 MSTORE POP PUSH1 0x40 MLOAD DUP1 PUSH1 0x80 ADD PUSH1 0x40 MSTORE DUP1 DUP13 DUP2 MSTORE PUSH1 0x20 ADD DUP12 DUP2 MSTORE PUSH1 0x20 ADD DUP8 DUP2 MSTORE PUSH1 0x20 ADD DUP11 DUP2 MSTORE POP PUSH1 0x40 MLOAD DUP6 PUSH4 0xFFFFFFFF AND PUSH1 0xE0 SHL DUP2 MSTORE PUSH1 0x4 ADD PUSH2 0x144B SWAP5 SWAP4 SWAP3 SWAP2 SWAP1 PUSH2 0x1F12 JUMP JUMPDEST PUSH1 0x0 PUSH1 0x40 MLOAD DUP1 DUP4 SUB DUP2 DUP7 DUP1 EXTCODESIZE ISZERO DUP1 ISZERO PUSH2 0x1463 JUMPI PUSH1 0x0 DUP1 REVERT JUMPDEST POP GAS STATICCALL ISZERO DUP1 ISZERO PUSH2 0x1477 JUMPI RETURNDATASIZE PUSH1 0x0 DUP1 RETURNDATACOPY RETURNDATASIZE PUSH1 0x0 REVERT JUMPDEST POP POP POP POP POP POP POP POP POP POP POP JUMP JUMPDEST PUSH1 0x0 PUSH2 0x148F DUP9 PUSH2 0xD01 JUMP JUMPDEST EQ ISZERO PUSH2 0x14C7 JUMPI PUSH1 0x40 MLOAD PUSH32 0x29F057900000000000000000000000000000000000000000000000000000000 DUP2 MSTORE PUSH1 0x4 ADD PUSH1 0x40 MLOAD DUP1 SWAP2 SUB SWAP1 REVERT JUMPDEST PUSH1 0x0 DUP1 DUP9 DUP2 MSTORE PUSH1 0x20 ADD SWAP1 DUP2 MSTORE PUSH1 0x20 ADD PUSH1 0x0 KECCAK256 PUSH20 0x0 PUSH4 0xA5478827 SWAP1 SWAP2 DUP9 DUP9 DUP9 DUP9 DUP9 DUP9 PUSH1 0x40 MLOAD DUP9 PUSH4 0xFFFFFFFF AND PUSH1 0xE0 SHL DUP2 MSTORE PUSH1 0x4 ADD PUSH2 0x151D SWAP8 SWAP7 SWAP6 SWAP5 SWAP4 SWAP3 SWAP2 SWAP1 PUSH2 0x202B JUMP JUMPDEST PUSH1 0x0 PUSH1 0x40 MLOAD DUP1 DUP4 SUB DUP2 DUP7 DUP1 EXTCODESIZE ISZERO DUP1 ISZERO PUSH2 0x1535 JUMPI PUSH1 0x0 DUP1 REVERT JUMPDEST POP GAS DELEGATECALL ISZERO DUP1 ISZERO PUSH2 0x1549 JUMPI RETURNDATASIZE PUSH1 0x0 DUP1 RETURNDATACOPY RETURNDATASIZE PUSH1 0x0 REVERT JUMPDEST POP POP POP POP PUSH1 0x0 PUSH2 0x1558 DUP9 PUSH2 0xD01 JUMP JUMPDEST SWAP1 POP PUSH1 0x0 PUSH2 0x1566 DUP5 DUP5 PUSH2 0x15B1 JUMP JUMPDEST SWAP1 POP DUP9 PUSH32 0xEA3588E4A2A0C93D6A0E69DFEAF7496F43CCCCF02AD9CE0A5B7627CBCA4B61B1 DUP3 DUP11 DUP11 DUP7 PUSH1 0x40 MLOAD PUSH2 0x159E SWAP5 SWAP4 SWAP3 SWAP2 SWAP1 PUSH2 0x2150 JUMP JUMPDEST PUSH1 0x40 MLOAD DUP1 SWAP2 SUB SWAP1 LOG2 POP POP POP POP POP POP POP POP POP JUMP JUMPDEST PUSH1 0x0 DUP1 PUSH1 0x0 SWAP1 POP PUSH1 0x0 DUP5 DUP5 SWAP1 POP SWAP1 POP JUMPDEST PUSH1 0x0 DUP2 PUSH1 0xFF AND GT ISZERO PUSH2 0x16D5 JUMPI PUSH1 0x0 DUP3 GT DUP1 PUSH2 0x163C JUMPI POP PUSH1 0x0 DUP6 DUP6 PUSH1 0x1 DUP5 PUSH2 0x15E8 SWAP2 SWAP1 PUSH2 0x235B JUMP JUMPDEST PUSH1 0xFF AND DUP2 DUP2 LT PUSH2 0x1621 JUMPI PUSH32 0x4E487B7100000000000000000000000000000000000000000000000000000000 PUSH1 0x0 MSTORE PUSH1 0x32 PUSH1 0x4 MSTORE PUSH1 0x24 PUSH1 0x0 REVERT JUMPDEST SWAP1 POP PUSH1 0x20 MUL ADD PUSH1 0x20 DUP2 ADD SWAP1 PUSH2 0x1636 SWAP2 SWAP1 PUSH2 0x1BC5 JUMP JUMPDEST PUSH1 0xFF AND EQ ISZERO JUMPDEST ISZERO PUSH2 0x16C9 JUMPI PUSH1 0x2 DUP3 PUSH2 0x164E SWAP2 SWAP1 PUSH2 0x22CD JUMP JUMPDEST SWAP2 POP PUSH1 0x1 DUP6 DUP6 PUSH1 0x1 DUP5 PUSH2 0x1661 SWAP2 SWAP1 PUSH2 0x235B JUMP JUMPDEST PUSH1 0xFF AND DUP2 DUP2 LT PUSH2 0x169A JUMPI PUSH32 0x4E487B7100000000000000000000000000000000000000000000000000000000 PUSH1 0x0 MSTORE PUSH1 0x32 PUSH1 0x4 MSTORE PUSH1 0x24 PUSH1 0x0 REVERT JUMPDEST SWAP1 POP PUSH1 0x20 MUL ADD PUSH1 0x20 DUP2 ADD SWAP1 PUSH2 0x16AF SWAP2 SWAP1 PUSH2 0x1BC5 JUMP JUMPDEST PUSH1 0xFF AND EQ ISZERO PUSH2 0x16C8 JUMPI PUSH1 0x1 DUP3 PUSH2 0x16C5 SWAP2 SWAP1 PUSH2 0x2277 JUMP JUMPDEST SWAP2 POP JUMPDEST JUMPDEST DUP1 PUSH1 0x1 SWAP1 SUB SWAP1 POP PUSH2 0x15C1 JUMP JUMPDEST POP DUP1 SWAP2 POP POP SWAP3 SWAP2 POP POP JUMP JUMPDEST PUSH1 0x0 PUSH1 0x8 DUP3 PUSH1 0x40 MLOAD PUSH1 0x20 ADD PUSH2 0x16F5 SWAP2 SWAP1 PUSH2 0x1ECE JUMP JUMPDEST PUSH1 0x40 MLOAD PUSH1 0x20 DUP2 DUP4 SUB SUB DUP2 MSTORE SWAP1 PUSH1 0x40 MSTORE DUP1 MLOAD SWAP1 PUSH1 0x20 ADD KECCAK256 PUSH1 0x0 SHR SWAP1 SHR SWAP1 POP SWAP2 SWAP1 POP JUMP JUMPDEST PUSH1 0x0 DUP2 CALLDATALOAD SWAP1 POP PUSH2 0x1726 DUP2 PUSH2 0x244E JUMP JUMPDEST SWAP3 SWAP2 POP POP JUMP JUMPDEST PUSH1 0x0 DUP2 SWAP1 POP DUP3 PUSH1 0x20 PUSH1 0x8 MUL DUP3 ADD GT ISZERO PUSH2 0x1744 JUMPI PUSH1 0x0 DUP1 REVERT JUMPDEST SWAP3 SWAP2 POP POP JUMP JUMPDEST PUSH1 0x0 DUP1 DUP4 PUSH1 0x1F DUP5 ADD SLT PUSH2 0x175C JUMPI PUSH1 0x0 DUP1 REVERT JUMPDEST DUP3 CALLDATALOAD SWAP1 POP PUSH8 0xFFFFFFFFFFFFFFFF DUP2 GT ISZERO PUSH2 0x1775 JUMPI PUSH1 0x0 DUP1 REVERT JUMPDEST PUSH1 0x20 DUP4 ADD SWAP2 POP DUP4 PUSH1 0x20 DUP3 MUL DUP4 ADD GT ISZERO PUSH2 0x178D JUMPI PUSH1 0x0 DUP1 REVERT JUMPDEST SWAP3 POP SWAP3 SWAP1 POP JUMP JUMPDEST PUSH1 0x0 DUP1 DUP4 PUSH1 0x1F DUP5 ADD SLT PUSH2 0x17A6 JUMPI PUSH1 0x0 DUP1 REVERT JUMPDEST DUP3 CALLDATALOAD SWAP1 POP PUSH8 0xFFFFFFFFFFFFFFFF DUP2 GT ISZERO PUSH2 0x17BF JUMPI PUSH1 0x0 DUP1 REVERT JUMPDEST PUSH1 0x20 DUP4 ADD SWAP2 POP DUP4 PUSH1 0x20 DUP3 MUL DUP4 ADD GT ISZERO PUSH2 0x17D7 JUMPI PUSH1 0x0 DUP1 REVERT JUMPDEST SWAP3 POP SWAP3 SWAP1 POP JUMP JUMPDEST PUSH1 0x0 DUP2 CALLDATALOAD SWAP1 POP PUSH2 0x17ED DUP2 PUSH2 0x2465 JUMP JUMPDEST SWAP3 SWAP2 POP POP JUMP JUMPDEST PUSH1 0x0 DUP2 CALLDATALOAD SWAP1 POP PUSH2 0x1802 DUP2 PUSH2 0x247C JUMP JUMPDEST SWAP3 SWAP2 POP POP JUMP JUMPDEST PUSH1 0x0 DUP2 CALLDATALOAD SWAP1 POP PUSH2 0x1817 DUP2 PUSH2 0x2493 JUMP JUMPDEST SWAP3 SWAP2 POP POP JUMP JUMPDEST PUSH1 0x0 PUSH1 0x20 DUP3 DUP5 SUB SLT ISZERO PUSH2 0x182F JUMPI PUSH1 0x0 DUP1 REVERT JUMPDEST PUSH1 0x0 PUSH2 0x183D DUP5 DUP3 DUP6 ADD PUSH2 0x17F3 JUMP JUMPDEST SWAP2 POP POP SWAP3 SWAP2 POP POP JUMP JUMPDEST PUSH1 0x0 DUP1 PUSH1 0x40 DUP4 DUP6 SUB SLT ISZERO PUSH2 0x1859 JUMPI PUSH1 0x0 DUP1 REVERT JUMPDEST PUSH1 0x0 PUSH2 0x1867 DUP6 DUP3 DUP7 ADD PUSH2 0x17F3 JUMP JUMPDEST SWAP3 POP POP PUSH1 0x20 PUSH2 0x1878 DUP6 DUP3 DUP7 ADD PUSH2 0x1717 JUMP JUMPDEST SWAP2 POP POP SWAP3 POP SWAP3 SWAP1 POP JUMP JUMPDEST PUSH1 0x0 DUP1 PUSH1 0x0 PUSH1 0x40 DUP5 DUP7 SUB SLT ISZERO PUSH2 0x1897 JUMPI PUSH1 0x0 DUP1 REVERT JUMPDEST PUSH1 0x0 PUSH2 0x18A5 DUP7 DUP3 DUP8 ADD PUSH2 0x17F3 JUMP JUMPDEST SWAP4 POP POP PUSH1 0x20 DUP5 ADD CALLDATALOAD PUSH8 0xFFFFFFFFFFFFFFFF DUP2 GT ISZERO PUSH2 0x18C2 JUMPI PUSH1 0x0 DUP1 REVERT JUMPDEST PUSH2 0x18CE DUP7 DUP3 DUP8 ADD PUSH2 0x174A JUMP JUMPDEST SWAP3 POP SWAP3 POP POP SWAP3 POP SWAP3 POP SWAP3 JUMP JUMPDEST PUSH1 0x0 DUP1 PUSH1 0x40 DUP4 DUP6 SUB SLT ISZERO PUSH2 0x18ED JUMPI PUSH1 0x0 DUP1 REVERT JUMPDEST PUSH1 0x0 PUSH2 0x18FB DUP6 DUP3 DUP7 ADD PUSH2 0x17F3 JUMP JUMPDEST SWAP3 POP POP PUSH1 0x20 PUSH2 0x190C DUP6 DUP3 DUP7 ADD PUSH2 0x17F3 JUMP JUMPDEST SWAP2 POP POP SWAP3 POP SWAP3 SWAP1 POP JUMP JUMPDEST PUSH1 0x0 DUP1 PUSH1 0x0 DUP1 PUSH1 0x0 DUP1 PUSH1 0x80 DUP8 DUP10 SUB SLT ISZERO PUSH2 0x192F JUMPI PUSH1 0x0 DUP1 REVERT JUMPDEST PUSH1 0x0 PUSH2 0x193D DUP10 DUP3 DUP11 ADD PUSH2 0x17F3 JUMP JUMPDEST SWAP7 POP POP PUSH1 0x20 PUSH2 0x194E DUP10 DUP3 DUP11 ADD PUSH2 0x17F3 JUMP JUMPDEST SWAP6 POP POP PUSH1 0x40 DUP8 ADD CALLDATALOAD PUSH8 0xFFFFFFFFFFFFFFFF DUP2 GT ISZERO PUSH2 0x196B JUMPI PUSH1 0x0 DUP1 REVERT JUMPDEST PUSH2 0x1977 DUP10 DUP3 DUP11 ADD PUSH2 0x174A JUMP JUMPDEST SWAP5 POP SWAP5 POP POP PUSH1 0x60 DUP8 ADD CALLDATALOAD PUSH8 0xFFFFFFFFFFFFFFFF DUP2 GT ISZERO PUSH2 0x1996 JUMPI PUSH1 0x0 DUP1 REVERT JUMPDEST PUSH2 0x19A2 DUP10 DUP3 DUP11 ADD PUSH2 0x1794 JUMP JUMPDEST SWAP3 POP SWAP3 POP POP SWAP3 SWAP6 POP SWAP3 SWAP6 POP SWAP3 SWAP6 JUMP JUMPDEST PUSH1 0x0 DUP1 PUSH1 0x0 DUP1 PUSH1 0x0 DUP1 PUSH2 0x1A0 DUP8 DUP10 SUB SLT ISZERO PUSH2 0x19CB JUMPI PUSH1 0x0 DUP1 REVERT JUMPDEST PUSH1 0x0 PUSH2 0x19D9 DUP10 DUP3 DUP11 ADD PUSH2 0x17F3 JUMP JUMPDEST SWAP7 POP POP PUSH1 0x20 PUSH2 0x19EA DUP10 DUP3 DUP11 ADD PUSH2 0x17F3 JUMP JUMPDEST SWAP6 POP POP PUSH1 0x40 PUSH2 0x19FB DUP10 DUP3 DUP11 ADD PUSH2 0x17DE JUMP JUMPDEST SWAP5 POP POP PUSH1 0x60 PUSH2 0x1A0C DUP10 DUP3 DUP11 ADD PUSH2 0x17F3 JUMP JUMPDEST SWAP4 POP POP PUSH1 0x80 PUSH2 0x1A1D DUP10 DUP3 DUP11 ADD PUSH2 0x17F3 JUMP JUMPDEST SWAP3 POP POP PUSH1 0xA0 PUSH2 0x1A2E DUP10 DUP3 DUP11 ADD PUSH2 0x172C JUMP JUMPDEST SWAP2 POP POP SWAP3 SWAP6 POP SWAP3 SWAP6 POP SWAP3 SWAP6 JUMP JUMPDEST PUSH1 0x0 DUP1 PUSH1 0x0 DUP1 PUSH1 0x80 DUP6 DUP8 SUB SLT ISZERO PUSH2 0x1A51 JUMPI PUSH1 0x0 DUP1 REVERT JUMPDEST PUSH1 0x0 PUSH2 0x1A5F DUP8 DUP3 DUP9 ADD PUSH2 0x17F3 JUMP JUMPDEST SWAP5 POP POP PUSH1 0x20 PUSH2 0x1A70 DUP8 DUP3 DUP9 ADD PUSH2 0x17F3 JUMP JUMPDEST SWAP4 POP POP PUSH1 0x40 PUSH2 0x1A81 DUP8 DUP3 DUP9 ADD PUSH2 0x17F3 JUMP JUMPDEST SWAP3 POP POP PUSH1 0x60 PUSH2 0x1A92 DUP8 DUP3 DUP9 ADD PUSH2 0x1717 JUMP JUMPDEST SWAP2 POP POP SWAP3 SWAP6 SWAP2 SWAP5 POP SWAP3 POP JUMP JUMPDEST PUSH1 0x0 DUP1 PUSH1 0x0 DUP1 PUSH1 0x0 PUSH1 0xA0 DUP7 DUP9 SUB SLT ISZERO PUSH2 0x1AB6 JUMPI PUSH1 0x0 DUP1 REVERT JUMPDEST PUSH1 0x0 PUSH2 0x1AC4 DUP9 DUP3 DUP10 ADD PUSH2 0x17F3 JUMP JUMPDEST SWAP6 POP POP PUSH1 0x20 PUSH2 0x1AD5 DUP9 DUP3 DUP10 ADD PUSH2 0x17F3 JUMP JUMPDEST SWAP5 POP POP PUSH1 0x40 PUSH2 0x1AE6 DUP9 DUP3 DUP10 ADD PUSH2 0x17F3 JUMP JUMPDEST SWAP4 POP POP PUSH1 0x60 PUSH2 0x1AF7 DUP9 DUP3 DUP10 ADD PUSH2 0x1717 JUMP JUMPDEST SWAP3 POP POP PUSH1 0x80 PUSH2 0x1B08 DUP9 DUP3 DUP10 ADD PUSH2 0x17F3 JUMP JUMPDEST SWAP2 POP POP SWAP3 SWAP6 POP SWAP3 SWAP6 SWAP1 SWAP4 POP JUMP JUMPDEST PUSH1 0x0 DUP1 PUSH1 0x0 DUP1 PUSH1 0x0 DUP1 PUSH1 0x0 PUSH1 0xA0 DUP9 DUP11 SUB SLT ISZERO PUSH2 0x1B30 JUMPI PUSH1 0x0 DUP1 REVERT JUMPDEST PUSH1 0x0 PUSH2 0x1B3E DUP11 DUP3 DUP12 ADD PUSH2 0x17F3 JUMP JUMPDEST SWAP8 POP POP PUSH1 0x20 PUSH2 0x1B4F DUP11 DUP3 DUP12 ADD PUSH2 0x17F3 JUMP JUMPDEST SWAP7 POP POP PUSH1 0x40 PUSH2 0x1B60 DUP11 DUP3 DUP12 ADD PUSH2 0x17F3 JUMP JUMPDEST SWAP6 POP POP PUSH1 0x60 DUP9 ADD CALLDATALOAD PUSH8 0xFFFFFFFFFFFFFFFF DUP2 GT ISZERO PUSH2 0x1B7D JUMPI PUSH1 0x0 DUP1 REVERT JUMPDEST PUSH2 0x1B89 DUP11 DUP3 DUP12 ADD PUSH2 0x174A JUMP JUMPDEST SWAP5 POP SWAP5 POP POP PUSH1 0x80 DUP9 ADD CALLDATALOAD PUSH8 0xFFFFFFFFFFFFFFFF DUP2 GT ISZERO PUSH2 0x1BA8 JUMPI PUSH1 0x0 DUP1 REVERT JUMPDEST PUSH2 0x1BB4 DUP11 DUP3 DUP12 ADD PUSH2 0x1794 JUMP JUMPDEST SWAP3 POP SWAP3 POP POP SWAP3 SWAP6 SWAP9 SWAP2 SWAP5 SWAP8 POP SWAP3 SWAP6 POP JUMP JUMPDEST PUSH1 0x0 PUSH1 0x20 DUP3 DUP5 SUB SLT ISZERO PUSH2 0x1BD7 JUMPI PUSH1 0x0 DUP1 REVERT JUMPDEST PUSH1 0x0 PUSH2 0x1BE5 DUP5 DUP3 DUP6 ADD PUSH2 0x1808 JUMP JUMPDEST SWAP2 POP POP SWAP3 SWAP2 POP POP JUMP JUMPDEST PUSH1 0x0 PUSH2 0x1BFA DUP4 DUP4 PUSH2 0x1C9C JUMP JUMPDEST PUSH1 0x40 DUP4 ADD SWAP1 POP SWAP3 SWAP2 POP POP JUMP JUMPDEST PUSH1 0x0 PUSH2 0x1C12 DUP4 DUP4 PUSH2 0x1E92 JUMP JUMPDEST PUSH1 0x20 DUP4 ADD SWAP1 POP SWAP3 SWAP2 POP POP JUMP JUMPDEST PUSH1 0x0 PUSH2 0x1C2A DUP4 DUP4 PUSH2 0x1EBF JUMP JUMPDEST PUSH1 0x20 DUP4 ADD SWAP1 POP SWAP3 SWAP2 POP POP JUMP JUMPDEST PUSH2 0x1C3F DUP2 PUSH2 0x238F JUMP JUMPDEST DUP3 MSTORE POP POP JUMP JUMPDEST PUSH2 0x1C4E DUP2 PUSH2 0x21BD JUMP JUMPDEST PUSH2 0x1C58 DUP2 DUP5 PUSH2 0x2212 JUMP JUMPDEST SWAP3 POP PUSH2 0x1C63 DUP3 PUSH2 0x2195 JUMP JUMPDEST DUP1 PUSH1 0x0 JUMPDEST DUP4 DUP2 LT ISZERO PUSH2 0x1C94 JUMPI DUP2 MLOAD PUSH2 0x1C7B DUP8 DUP3 PUSH2 0x1BEE JUMP JUMPDEST SWAP7 POP PUSH2 0x1C86 DUP4 PUSH2 0x21DE JUMP JUMPDEST SWAP3 POP POP PUSH1 0x1 DUP2 ADD SWAP1 POP PUSH2 0x1C67 JUMP JUMPDEST POP POP POP POP POP POP JUMP JUMPDEST PUSH2 0x1CA5 DUP2 PUSH2 0x21C8 JUMP JUMPDEST PUSH2 0x1CAF DUP2 DUP5 PUSH2 0x221D JUMP JUMPDEST SWAP3 POP PUSH2 0x1CBA DUP3 PUSH2 0x219F JUMP JUMPDEST DUP1 PUSH1 0x0 JUMPDEST DUP4 DUP2 LT ISZERO PUSH2 0x1CEB JUMPI DUP2 MLOAD PUSH2 0x1CD2 DUP8 DUP3 PUSH2 0x1C06 JUMP JUMPDEST SWAP7 POP PUSH2 0x1CDD DUP4 PUSH2 0x21EB JUMP JUMPDEST SWAP3 POP POP PUSH1 0x1 DUP2 ADD SWAP1 POP PUSH2 0x1CBE JUMP JUMPDEST POP POP POP POP POP POP JUMP JUMPDEST PUSH2 0x1CFC DUP2 PUSH2 0x21C8 JUMP JUMPDEST PUSH2 0x1D06 DUP2 DUP5 PUSH2 0x2228 JUMP JUMPDEST SWAP3 POP PUSH2 0x1D11 DUP3 PUSH2 0x219F JUMP JUMPDEST DUP1 PUSH1 0x0 JUMPDEST DUP4 DUP2 LT ISZERO PUSH2 0x1D42 JUMPI DUP2 MLOAD PUSH2 0x1D29 DUP8 DUP3 PUSH2 0x1C06 JUMP JUMPDEST SWAP7 POP PUSH2 0x1D34 DUP4 PUSH2 0x21EB JUMP JUMPDEST SWAP3 POP POP PUSH1 0x1 DUP2 ADD SWAP1 POP PUSH2 0x1D15 JUMP JUMPDEST POP POP POP POP POP POP JUMP JUMPDEST PUSH2 0x1D53 DUP2 PUSH2 0x21D3 JUMP JUMPDEST PUSH2 0x1D5D DUP2 DUP5 PUSH2 0x2233 JUMP JUMPDEST SWAP3 POP PUSH2 0x1D68 DUP3 PUSH2 0x21A9 JUMP JUMPDEST DUP1 PUSH1 0x0 JUMPDEST DUP4 DUP2 LT ISZERO PUSH2 0x1D99 JUMPI DUP2 MLOAD PUSH2 0x1D80 DUP8 DUP3 PUSH2 0x1C06 JUMP JUMPDEST SWAP7 POP PUSH2 0x1D8B DUP4 PUSH2 0x21F8 JUMP JUMPDEST SWAP3 POP POP PUSH1 0x1 DUP2 ADD SWAP1 POP PUSH2 0x1D6C JUMP JUMPDEST POP POP POP POP POP POP JUMP JUMPDEST PUSH1 0x0 PUSH2 0x1DAD DUP4 DUP6 PUSH2 0x223E JUMP JUMPDEST SWAP4 POP PUSH32 0x7FFFFFFFFFFFFFFFFFFFFFFFFFFFFFFFFFFFFFFFFFFFFFFFFFFFFFFFFFFFFFF DUP4 GT ISZERO PUSH2 0x1DDC JUMPI PUSH1 0x0 DUP1 REVERT JUMPDEST PUSH1 0x20 DUP4 MUL SWAP3 POP PUSH2 0x1DED DUP4 DUP6 DUP5 PUSH2 0x2406 JUMP JUMPDEST DUP3 DUP5 ADD SWAP1 POP SWAP4 SWAP3 POP POP POP JUMP JUMPDEST PUSH1 0x0 PUSH2 0x1E05 DUP4 DUP6 PUSH2 0x224F JUMP JUMPDEST SWAP4 POP PUSH2 0x1E10 DUP3 PUSH2 0x21B3 JUMP JUMPDEST DUP1 PUSH1 0x0 JUMPDEST DUP6 DUP2 LT ISZERO PUSH2 0x1E49 JUMPI PUSH2 0x1E26 DUP3 DUP5 PUSH2 0x2260 JUMP JUMPDEST PUSH2 0x1E30 DUP9 DUP3 PUSH2 0x1C1E JUMP JUMPDEST SWAP8 POP PUSH2 0x1E3B DUP4 PUSH2 0x2205 JUMP JUMPDEST SWAP3 POP POP PUSH1 0x1 DUP2 ADD SWAP1 POP PUSH2 0x1E14 JUMP JUMPDEST POP DUP6 SWAP3 POP POP POP SWAP4 SWAP3 POP POP POP JUMP JUMPDEST PUSH2 0x1E5F DUP2 PUSH2 0x23A1 JUMP JUMPDEST DUP3 MSTORE POP POP JUMP JUMPDEST PUSH2 0x1E76 PUSH2 0x1E71 DUP3 PUSH2 0x23A1 JUMP JUMPDEST PUSH2 0x2415 JUMP JUMPDEST DUP3 MSTORE POP POP JUMP JUMPDEST PUSH2 0x1E85 DUP2 PUSH2 0x23E2 JUMP JUMPDEST DUP3 MSTORE POP POP JUMP JUMPDEST DUP1 DUP3 MSTORE POP POP JUMP JUMPDEST PUSH2 0x1E9B DUP2 PUSH2 0x23CB JUMP JUMPDEST DUP3 MSTORE POP POP JUMP JUMPDEST PUSH2 0x1EAA DUP2 PUSH2 0x23CB JUMP JUMPDEST DUP3 MSTORE POP POP JUMP JUMPDEST PUSH2 0x1EB9 DUP2 PUSH2 0x23CB JUMP JUMPDEST DUP3 MSTORE POP POP JUMP JUMPDEST PUSH2 0x1EC8 DUP2 PUSH2 0x23D5 JUMP JUMPDEST DUP3 MSTORE POP POP JUMP JUMPDEST PUSH1 0x0 PUSH2 0x1EDA DUP3 DUP5 PUSH2 0x1E65 JUMP JUMPDEST PUSH1 0x20 DUP3 ADD SWAP2 POP DUP2 SWAP1 POP SWAP3 SWAP2 POP POP JUMP JUMPDEST PUSH1 0x0 PUSH1 0x40 DUP3 ADD SWAP1 POP PUSH2 0x1EFE PUSH1 0x0 DUP4 ADD DUP6 PUSH2 0x1C36 JUMP JUMPDEST PUSH2 0x1F0B PUSH1 0x20 DUP4 ADD DUP5 PUSH2 0x1EA1 JUMP JUMPDEST SWAP4 SWAP3 POP POP POP JUMP JUMPDEST PUSH1 0x0 PUSH2 0x180 DUP3 ADD SWAP1 POP PUSH2 0x1F28 PUSH1 0x0 DUP4 ADD DUP8 PUSH2 0x1CF3 JUMP JUMPDEST PUSH2 0x1F35 PUSH1 0x40 DUP4 ADD DUP7 PUSH2 0x1C45 JUMP JUMPDEST PUSH2 0x1F42 PUSH1 0xC0 DUP4 ADD DUP6 PUSH2 0x1CF3 JUMP JUMPDEST PUSH2 0x1F50 PUSH2 0x100 DUP4 ADD DUP5 PUSH2 0x1D4A JUMP JUMPDEST SWAP6 SWAP5 POP POP POP POP POP JUMP JUMPDEST PUSH1 0x0 PUSH1 0x20 DUP3 ADD SWAP1 POP PUSH2 0x1F6E PUSH1 0x0 DUP4 ADD DUP5 PUSH2 0x1E7C JUMP JUMPDEST SWAP3 SWAP2 POP POP JUMP JUMPDEST PUSH1 0x0 PUSH1 0x40 DUP3 ADD SWAP1 POP PUSH2 0x1F89 PUSH1 0x0 DUP4 ADD DUP6 PUSH2 0x1E8B JUMP JUMPDEST PUSH2 0x1F96 PUSH1 0x20 DUP4 ADD DUP5 PUSH2 0x1EB0 JUMP JUMPDEST SWAP4 SWAP3 POP POP POP JUMP JUMPDEST PUSH1 0x0 PUSH1 0x80 DUP3 ADD SWAP1 POP PUSH2 0x1FB2 PUSH1 0x0 DUP4 ADD DUP10 PUSH2 0x1E8B JUMP JUMPDEST PUSH2 0x1FBF PUSH1 0x20 DUP4 ADD DUP9 PUSH2 0x1EB0 JUMP JUMPDEST DUP2 DUP2 SUB PUSH1 0x40 DUP4 ADD MSTORE PUSH2 0x1FD2 DUP2 DUP7 DUP9 PUSH2 0x1DA1 JUMP JUMPDEST SWAP1 POP DUP2 DUP2 SUB PUSH1 0x60 DUP4 ADD MSTORE PUSH2 0x1FE7 DUP2 DUP5 DUP7 PUSH2 0x1DF9 JUMP JUMPDEST SWAP1 POP SWAP8 SWAP7 POP POP POP POP POP POP POP JUMP JUMPDEST PUSH1 0x0 PUSH1 0x60 DUP3 ADD SWAP1 POP PUSH2 0x2009 PUSH1 0x0 DUP4 ADD DUP7 PUSH2 0x1E8B JUMP JUMPDEST PUSH2 0x2016 PUSH1 0x20 DUP4 ADD DUP6 PUSH2 0x1EB0 JUMP JUMPDEST PUSH2 0x2023 PUSH1 0x40 DUP4 ADD DUP5 PUSH2 0x1EB0 JUMP JUMPDEST SWAP5 SWAP4 POP POP POP POP JUMP JUMPDEST PUSH1 0x0 PUSH1 0xA0 DUP3 ADD SWAP1 POP PUSH2 0x2040 PUSH1 0x0 DUP4 ADD DUP11 PUSH2 0x1E8B JUMP JUMPDEST PUSH2 0x204D PUSH1 0x20 DUP4 ADD DUP10 PUSH2 0x1EB0 JUMP JUMPDEST PUSH2 0x205A PUSH1 0x40 DUP4 ADD DUP9 PUSH2 0x1EB0 JUMP JUMPDEST DUP2 DUP2 SUB PUSH1 0x60 DUP4 ADD MSTORE PUSH2 0x206D DUP2 DUP7 DUP9 PUSH2 0x1DA1 JUMP JUMPDEST SWAP1 POP DUP2 DUP2 SUB PUSH1 0x80 DUP4 ADD MSTORE PUSH2 0x2082 DUP2 DUP5 DUP7 PUSH2 0x1DF9 JUMP JUMPDEST SWAP1 POP SWAP9 SWAP8 POP POP POP POP POP POP POP POP JUMP JUMPDEST PUSH1 0x0 PUSH1 0x20 DUP3 ADD SWAP1 POP PUSH2 0x20A5 PUSH1 0x0 DUP4 ADD DUP5 PUSH2 0x1EA1 JUMP JUMPDEST SWAP3 SWAP2 POP POP JUMP JUMPDEST PUSH1 0x0 PUSH1 0x40 DUP3 ADD SWAP1 POP PUSH2 0x20C0 PUSH1 0x0 DUP4 ADD DUP6 PUSH2 0x1EA1 JUMP JUMPDEST PUSH2 0x20CD PUSH1 0x20 DUP4 ADD DUP5 PUSH2 0x1EA1 JUMP JUMPDEST SWAP4 SWAP3 POP POP POP JUMP JUMPDEST PUSH1 0x0 PUSH1 0x60 DUP3 ADD SWAP1 POP PUSH2 0x20E9 PUSH1 0x0 DUP4 ADD DUP7 PUSH2 0x1EA1 JUMP JUMPDEST PUSH2 0x20F6 PUSH1 0x20 DUP4 ADD DUP6 PUSH2 0x1EA1 JUMP JUMPDEST PUSH2 0x2103 PUSH1 0x40 DUP4 ADD DUP5 PUSH2 0x1EA1 JUMP JUMPDEST SWAP5 SWAP4 POP POP POP POP JUMP JUMPDEST PUSH1 0x0 PUSH1 0x80 DUP3 ADD SWAP1 POP PUSH2 0x2120 PUSH1 0x0 DUP4 ADD DUP8 PUSH2 0x1EA1 JUMP JUMPDEST PUSH2 0x212D PUSH1 0x20 DUP4 ADD DUP7 PUSH2 0x1EA1 JUMP JUMPDEST PUSH2 0x213A PUSH1 0x40 DUP4 ADD DUP6 PUSH2 0x1EA1 JUMP JUMPDEST PUSH2 0x2147 PUSH1 0x60 DUP4 ADD DUP5 PUSH2 0x1E56 JUMP JUMPDEST SWAP6 SWAP5 POP POP POP POP POP JUMP JUMPDEST PUSH1 0x0 PUSH1 0x80 DUP3 ADD SWAP1 POP PUSH2 0x2165 PUSH1 0x0 DUP4 ADD DUP8 PUSH2 0x1EA1 JUMP JUMPDEST PUSH2 0x2172 PUSH1 0x20 DUP4 ADD DUP7 PUSH2 0x1EA1 JUMP JUMPDEST PUSH2 0x217F PUSH1 0x40 DUP4 ADD DUP6 PUSH2 0x1EA1 JUMP JUMPDEST PUSH2 0x218C PUSH1 0x60 DUP4 ADD DUP5 PUSH2 0x1EA1 JUMP JUMPDEST SWAP6 SWAP5 POP POP POP POP POP JUMP JUMPDEST PUSH1 0x0 DUP2 SWAP1 POP SWAP2 SWAP1 POP JUMP JUMPDEST PUSH1 0x0 DUP2 SWAP1 POP SWAP2 SWAP1 POP JUMP JUMPDEST PUSH1 0x0 DUP2 SWAP1 POP SWAP2 SWAP1 POP JUMP JUMPDEST PUSH1 0x0 DUP2 SWAP1 POP SWAP2 SWAP1 POP JUMP JUMPDEST PUSH1 0x0 PUSH1 0x2 SWAP1 POP SWAP2 SWAP1 POP JUMP JUMPDEST PUSH1 0x0 PUSH1 0x2 SWAP1 POP SWAP2 SWAP1 POP JUMP JUMPDEST PUSH1 0x0 PUSH1 0x4 SWAP1 POP SWAP2 SWAP1 POP JUMP JUMPDEST PUSH1 0x0 PUSH1 0x20 DUP3 ADD SWAP1 POP SWAP2 SWAP1 POP JUMP JUMPDEST PUSH1 0x0 PUSH1 0x20 DUP3 ADD SWAP1 POP SWAP2 SWAP1 POP JUMP JUMPDEST PUSH1 0x0 PUSH1 0x20 DUP3 ADD SWAP1 POP SWAP2 SWAP1 POP JUMP JUMPDEST PUSH1 0x0 PUSH1 0x20 DUP3 ADD SWAP1 POP SWAP2 SWAP1 POP JUMP JUMPDEST PUSH1 0x0 DUP2 SWAP1 POP SWAP3 SWAP2 POP POP JUMP JUMPDEST PUSH1 0x0 DUP2 SWAP1 POP SWAP3 SWAP2 POP POP JUMP JUMPDEST PUSH1 0x0 DUP2 SWAP1 POP SWAP3 SWAP2 POP POP JUMP JUMPDEST PUSH1 0x0 DUP2 SWAP1 POP SWAP3 SWAP2 POP POP JUMP JUMPDEST PUSH1 0x0 DUP3 DUP3 MSTORE PUSH1 0x20 DUP3 ADD SWAP1 POP SWAP3 SWAP2 POP POP JUMP JUMPDEST PUSH1 0x0 DUP3 DUP3 MSTORE PUSH1 0x20 DUP3 ADD SWAP1 POP SWAP3 SWAP2 POP POP JUMP JUMPDEST PUSH1 0x0 PUSH2 0x226F PUSH1 0x20 DUP5 ADD DUP5 PUSH2 0x1808 JUMP JUMPDEST SWAP1 POP SWAP3 SWAP2 POP POP JUMP JUMPDEST PUSH1 0x0 PUSH2 0x2282 DUP3 PUSH2 0x23CB JUMP JUMPDEST SWAP2 POP PUSH2 0x228D DUP4 PUSH2 0x23CB JUMP JUMPDEST SWAP3 POP DUP3 PUSH32 0xFFFFFFFFFFFFFFFFFFFFFFFFFFFFFFFFFFFFFFFFFFFFFFFFFFFFFFFFFFFFFFFF SUB DUP3 GT ISZERO PUSH2 0x22C2 JUMPI PUSH2 0x22C1 PUSH2 0x241F JUMP JUMPDEST JUMPDEST DUP3 DUP3 ADD SWAP1 POP SWAP3 SWAP2 POP POP JUMP JUMPDEST PUSH1 0x0 PUSH2 0x22D8 DUP3 PUSH2 0x23CB JUMP JUMPDEST SWAP2 POP PUSH2 0x22E3 DUP4 PUSH2 0x23CB JUMP JUMPDEST SWAP3 POP DUP2 PUSH32 0xFFFFFFFFFFFFFFFFFFFFFFFFFFFFFFFFFFFFFFFFFFFFFFFFFFFFFFFFFFFFFFFF DIV DUP4 GT DUP3 ISZERO ISZERO AND ISZERO PUSH2 0x231C JUMPI PUSH2 0x231B PUSH2 0x241F JUMP JUMPDEST JUMPDEST DUP3 DUP3 MUL SWAP1 POP SWAP3 SWAP2 POP POP JUMP JUMPDEST PUSH1 0x0 PUSH2 0x2332 DUP3 PUSH2 0x23CB JUMP JUMPDEST SWAP2 POP PUSH2 0x233D DUP4 PUSH2 0x23CB JUMP JUMPDEST SWAP3 POP DUP3 DUP3 LT ISZERO PUSH2 0x2350 JUMPI PUSH2 0x234F PUSH2 0x241F JUMP JUMPDEST JUMPDEST DUP3 DUP3 SUB SWAP1 POP SWAP3 SWAP2 POP POP JUMP JUMPDEST PUSH1 0x0 PUSH2 0x2366 DUP3 PUSH2 0x23D5 JUMP JUMPDEST SWAP2 POP PUSH2 0x2371 DUP4 PUSH2 0x23D5 JUMP JUMPDEST SWAP3 POP DUP3 DUP3 LT ISZERO PUSH2 0x2384 JUMPI PUSH2 0x2383 PUSH2 0x241F JUMP JUMPDEST JUMPDEST DUP3 DUP3 SUB SWAP1 POP SWAP3 SWAP2 POP POP JUMP JUMPDEST PUSH1 0x0 PUSH2 0x239A DUP3 PUSH2 0x23AB JUMP JUMPDEST SWAP1 POP SWAP2 SWAP1 POP JUMP JUMPDEST PUSH1 0x0 DUP2 SWAP1 POP SWAP2 SWAP1 POP JUMP JUMPDEST PUSH1 0x0 PUSH20 0xFFFFFFFFFFFFFFFFFFFFFFFFFFFFFFFFFFFFFFFF DUP3 AND SWAP1 POP SWAP2 SWAP1 POP JUMP JUMPDEST PUSH1 0x0 DUP2 SWAP1 POP SWAP2 SWAP1 POP JUMP JUMPDEST PUSH1 0x0 PUSH1 0xFF DUP3 AND SWAP1 POP SWAP2 SWAP1 POP JUMP JUMPDEST PUSH1 0x0 PUSH2 0x23ED DUP3 PUSH2 0x23F4 JUMP JUMPDEST SWAP1 POP SWAP2 SWAP1 POP JUMP JUMPDEST PUSH1 0x0 PUSH2 0x23FF DUP3 PUSH2 0x23AB JUMP JUMPDEST SWAP1 POP SWAP2 SWAP1 POP JUMP JUMPDEST DUP3 DUP2 DUP4 CALLDATACOPY PUSH1 0x0 DUP4 DUP4 ADD MSTORE POP POP POP JUMP JUMPDEST PUSH1 0x0 DUP2 SWAP1 POP SWAP2 SWAP1 POP JUMP JUMPDEST PUSH32 0x4E487B7100000000000000000000000000000000000000000000000000000000 PUSH1 0x0 MSTORE PUSH1 0x11 PUSH1 0x4 MSTORE PUSH1 0x24 PUSH1 0x0 REVERT JUMPDEST PUSH2 0x2457 DUP2 PUSH2 0x238F JUMP JUMPDEST DUP2 EQ PUSH2 0x2462 JUMPI PUSH1 0x0 DUP1 REVERT JUMPDEST POP JUMP JUMPDEST PUSH2 0x246E DUP2 PUSH2 0x23A1 JUMP JUMPDEST DUP2 EQ PUSH2 0x2479 JUMPI PUSH1 0x0 DUP1 REVERT JUMPDEST POP JUMP JUMPDEST PUSH2 0x2485 DUP2 PUSH2 0x23CB JUMP JUMPDEST DUP2 EQ PUSH2 0x2490 JUMPI PUSH1 0x0 DUP1 REVERT JUMPDEST POP JUMP JUMPDEST PUSH2 0x249C DUP2 PUSH2 0x23D5 JUMP JUMPDEST DUP2 EQ PUSH2 0x24A7 JUMPI PUSH1 0x0 DUP1 REVERT JUMPDEST POP JUMP INVALID LOG2 PUSH5 0x6970667358 0x22 SLT KECCAK256 0x5F PUSH6 0x9E8C39F7342D LOG4 PUSH5 0x4BC68B0437 0xF7 PUSH18 0x2FC07103A74154AC647DFBA4B0123364736F PUSH13 0x63430008040033000000000000 "},"methodIdentifiers":{"addMember(uint256,uint256)":"1783efc3","addMembers(uint256,uint256[])":"04245371","createGroup(uint256,uint256,uint256,address)":"059f1bb5","createGroup(uint256,uint256,uint256,address,uint256)":"aa524e2c","getMerkleTreeDepth(uint256)":"6389e107","getMerkleTreeRoot(uint256)":"dabc4d51","getNumberOfMerkleTreeLeaves(uint256)":"638480be","groups(uint256)":"96324bd4","removeMember(uint256,uint256,uint256[],uint8[])":"43989f85","updateGroupAdmin(uint256,address)":"568ee826","updateMember(uint256,uint256,uint256,uint256[],uint8[])":"ec45622a","verifiers(uint256)":"ac1eff68","verifyProof(uint256,uint256,bytes32,uint256,uint256,uint256[8])":"8b69310a"}}}}}