{
  "_format": "hh-sol-artifact-1",
  "contractName": "SemaphoreWhistleblowing",
  "sourceName": "contracts/extensions/SemaphoreWhistleblowing.sol",
  "abi": [
    {
      "inputs": [
        {
          "components": [
            {
              "internalType": "address",
              "name": "contractAddress",
              "type": "address"
            },
            {
              "internalType": "uint256",
              "name": "merkleTreeDepth",
              "type": "uint256"
            }
          ],
          "internalType": "struct ISemaphoreWhistleblowing.Verifier[]",
          "name": "_verifiers",
          "type": "tuple[]"
        }
      ],
      "stateMutability": "nonpayable",
      "type": "constructor"
    },
    {
      "inputs": [],
      "name": "Semaphore__CallerIsNotTheEditor",
      "type": "error"
    },
    {
      "inputs": [],
      "name": "Semaphore__GroupAlreadyExists",
      "type": "error"
    },
    {
      "inputs": [],
      "name": "Semaphore__GroupDoesNotExist",
      "type": "error"
    },
    {
      "inputs": [],
      "name": "Semaphore__GroupIdIsNotLessThanSnarkScalarField",
      "type": "error"
    },
    {
      "inputs": [],
      "name": "Semaphore__MerkleTreeDepthIsNotSupported",
      "type": "error"
    },
    {
      "anonymous": false,
      "inputs": [
        {
          "indexed": false,
          "internalType": "uint256",
          "name": "entityId",
          "type": "uint256"
        },
        {
          "indexed": true,
          "internalType": "address",
          "name": "editor",
          "type": "address"
        }
      ],
      "name": "EntityCreated",
      "type": "event"
    },
    {
      "anonymous": false,
      "inputs": [
        {
          "indexed": true,
          "internalType": "uint256",
          "name": "groupId",
          "type": "uint256"
        },
        {
          "indexed": false,
          "internalType": "uint256",
          "name": "merkleTreeDepth",
          "type": "uint256"
        },
        {
          "indexed": false,
          "internalType": "uint256",
          "name": "zeroValue",
          "type": "uint256"
        }
      ],
      "name": "GroupCreated",
      "type": "event"
    },
    {
      "anonymous": false,
      "inputs": [
        {
          "indexed": true,
          "internalType": "uint256",
          "name": "entityId",
          "type": "uint256"
        },
        {
          "indexed": false,
          "internalType": "bytes32",
          "name": "leak",
          "type": "bytes32"
        }
      ],
      "name": "LeakPublished",
      "type": "event"
    },
    {
      "anonymous": false,
      "inputs": [
        {
          "indexed": true,
          "internalType": "uint256",
          "name": "groupId",
          "type": "uint256"
        },
        {
          "indexed": false,
          "internalType": "uint256",
          "name": "index",
          "type": "uint256"
        },
        {
          "indexed": false,
          "internalType": "uint256",
          "name": "identityCommitment",
          "type": "uint256"
        },
        {
          "indexed": false,
          "internalType": "uint256",
          "name": "merkleTreeRoot",
          "type": "uint256"
        }
      ],
      "name": "MemberAdded",
      "type": "event"
    },
    {
      "anonymous": false,
      "inputs": [
        {
          "indexed": true,
          "internalType": "uint256",
          "name": "groupId",
          "type": "uint256"
        },
        {
          "indexed": false,
          "internalType": "uint256",
          "name": "index",
          "type": "uint256"
        },
        {
          "indexed": false,
          "internalType": "uint256",
          "name": "identityCommitment",
          "type": "uint256"
        },
        {
          "indexed": false,
          "internalType": "uint256",
          "name": "merkleTreeRoot",
          "type": "uint256"
        }
      ],
      "name": "MemberRemoved",
      "type": "event"
    },
    {
      "anonymous": false,
      "inputs": [
        {
          "indexed": true,
          "internalType": "uint256",
          "name": "groupId",
          "type": "uint256"
        },
        {
          "indexed": false,
          "internalType": "uint256",
          "name": "index",
          "type": "uint256"
        },
        {
          "indexed": false,
          "internalType": "uint256",
          "name": "identityCommitment",
          "type": "uint256"
        },
        {
          "indexed": false,
          "internalType": "uint256",
          "name": "newIdentityCommitment",
          "type": "uint256"
        },
        {
          "indexed": false,
          "internalType": "uint256",
          "name": "merkleTreeRoot",
          "type": "uint256"
        }
      ],
      "name": "MemberUpdated",
      "type": "event"
    },
    {
      "anonymous": false,
      "inputs": [
        {
          "indexed": false,
          "internalType": "uint256",
          "name": "nullifierHash",
          "type": "uint256"
        }
      ],
      "name": "NullifierHashAdded",
      "type": "event"
    },
    {
      "inputs": [
        {
          "internalType": "uint256",
          "name": "entityId",
          "type": "uint256"
        },
        {
          "internalType": "uint256",
          "name": "identityCommitment",
          "type": "uint256"
        }
      ],
      "name": "addWhistleblower",
      "outputs": [],
      "stateMutability": "nonpayable",
      "type": "function"
    },
    {
      "inputs": [
        {
          "internalType": "uint256",
          "name": "entityId",
          "type": "uint256"
        },
        {
          "internalType": "address",
          "name": "editor",
          "type": "address"
        },
        {
          "internalType": "uint256",
          "name": "merkleTreeDepth",
          "type": "uint256"
        }
      ],
      "name": "createEntity",
      "outputs": [],
      "stateMutability": "nonpayable",
      "type": "function"
    },
    {
      "inputs": [
        {
          "internalType": "uint256",
          "name": "groupId",
          "type": "uint256"
        }
      ],
      "name": "getMerkleTreeDepth",
      "outputs": [
        {
          "internalType": "uint256",
          "name": "",
          "type": "uint256"
        }
      ],
      "stateMutability": "view",
      "type": "function"
    },
    {
      "inputs": [
        {
          "internalType": "uint256",
          "name": "groupId",
          "type": "uint256"
        }
      ],
      "name": "getMerkleTreeRoot",
      "outputs": [
        {
          "internalType": "uint256",
          "name": "",
          "type": "uint256"
        }
      ],
      "stateMutability": "view",
      "type": "function"
    },
    {
      "inputs": [
        {
          "internalType": "uint256",
          "name": "groupId",
          "type": "uint256"
        }
      ],
      "name": "getNumberOfMerkleTreeLeaves",
      "outputs": [
        {
          "internalType": "uint256",
          "name": "",
          "type": "uint256"
        }
      ],
      "stateMutability": "view",
      "type": "function"
    },
    {
      "inputs": [
        {
          "internalType": "bytes32",
          "name": "leak",
          "type": "bytes32"
        },
        {
          "internalType": "uint256",
          "name": "nullifierHash",
          "type": "uint256"
        },
        {
          "internalType": "uint256",
          "name": "entityId",
          "type": "uint256"
        },
        {
          "internalType": "uint256[8]",
          "name": "proof",
          "type": "uint256[8]"
        }
      ],
      "name": "publishLeak",
      "outputs": [],
      "stateMutability": "nonpayable",
      "type": "function"
    },
    {
      "inputs": [
        {
          "internalType": "uint256",
          "name": "entityId",
          "type": "uint256"
        },
        {
          "internalType": "uint256",
          "name": "identityCommitment",
          "type": "uint256"
        },
        {
          "internalType": "uint256[]",
          "name": "proofSiblings",
          "type": "uint256[]"
        },
        {
          "internalType": "uint8[]",
          "name": "proofPathIndices",
          "type": "uint8[]"
        }
      ],
      "name": "removeWhistleblower",
      "outputs": [],
      "stateMutability": "nonpayable",
      "type": "function"
    }
  ],
  "bytecode": "0x60806040523480156200001157600080fd5b5060405162001be138038062001be1833981810160405281019062000037919062000260565b60005b81518160ff1610156200013557818160ff168151811062000084577f4e487b7100000000000000000000000000000000000000000000000000000000600052603260045260246000fd5b60200260200101516000015160016000848460ff1681518110620000d1577f4e487b7100000000000000000000000000000000000000000000000000000000600052603260045260246000fd5b602002602001015160200151815260200190815260200160002060006101000a81548173ffffffffffffffffffffffffffffffffffffffff021916908373ffffffffffffffffffffffffffffffffffffffff1602179055508060010190506200003a565b5050620003e5565b6000620001546200014e84620002ce565b620002a5565b905080838252602082019050828560408602820111156200017457600080fd5b60005b85811015620001a857816200018d8882620001f6565b84526020840193506040830192505060018101905062000177565b5050509392505050565b600081519050620001c381620003b1565b92915050565b600082601f830112620001db57600080fd5b8151620001ed8482602086016200013d565b91505092915050565b6000604082840312156200020957600080fd5b620002156040620002a5565b905060006200022784828501620001b2565b60008301525060206200023d8482850162000249565b60208301525092915050565b6000815190506200025a81620003cb565b92915050565b6000602082840312156200027357600080fd5b600082015167ffffffffffffffff8111156200028e57600080fd5b6200029c84828501620001c9565b91505092915050565b6000620002b1620002c4565b9050620002bf82826200033b565b919050565b6000604051905090565b600067ffffffffffffffff821115620002ec57620002eb62000371565b5b602082029050602081019050919050565b60006200030a8262000311565b9050919050565b600073ffffffffffffffffffffffffffffffffffffffff82169050919050565b6000819050919050565b6200034682620003a0565b810181811067ffffffffffffffff8211171562000368576200036762000371565b5b80604052505050565b7f4e487b7100000000000000000000000000000000000000000000000000000000600052604160045260246000fd5b6000601f19601f8301169050919050565b620003bc81620002fd565b8114620003c857600080fd5b50565b620003d68162000331565b8114620003e257600080fd5b50565b6117ec80620003f56000396000f3fe608060405234801561001057600080fd5b506004361061007d5760003560e01c80636389e1071161005b5780636389e107146100ea5780638fe035871461011a578063ca7e534c14610136578063dabc4d51146101525761007d565b806334cedd10146100825780635027000d1461009e578063638480be146100ba575b600080fd5b61009c60048036038101906100979190610f05565b610182565b005b6100b860048036038101906100b39190610f90565b6102bf565b005b6100d460048036038101906100cf9190610edc565b610356565b6040516100e1919061144a565b60405180910390f35b61010460048036038101906100ff9190610edc565b610375565b604051610111919061144a565b60405180910390f35b610134600480360381019061012f9190610f54565b610394565b005b610150600480360381019061014b9190610e78565b610423565b005b61016c60048036038101906101679190610edc565b610545565b604051610179919061144a565b60405180910390f35b600073ffffffffffffffffffffffffffffffffffffffff166001600083815260200190815260200160002060009054906101000a900473ffffffffffffffffffffffffffffffffffffffff1673ffffffffffffffffffffffffffffffffffffffff16141561021c576040517fecf64f1200000000000000000000000000000000000000000000000000000000815260040160405180910390fd5b61022883826000610564565b82600260008473ffffffffffffffffffffffffffffffffffffffff1673ffffffffffffffffffffffffffffffffffffffff168152602001908152602001600020819055508173ffffffffffffffffffffffffffffffffffffffff167f5340f46ccfdbf46cea681e7481c711c8838cbcda1356cab6f31a2d0b2cd3525a846040516102b2919061144a565b60405180910390a2505050565b85600260006102cc6106bc565b73ffffffffffffffffffffffffffffffffffffffff1673ffffffffffffffffffffffffffffffffffffffff16815260200190815260200160002054811461033f576040517f0cfd3b8500000000000000000000000000000000000000000000000000000000815260040160405180910390fd5b61034d8787878787876106c4565b50505050505050565b6000806000838152602001908152602001600020600201549050919050565b6000806000838152602001908152602001600020600001549050919050565b81600260006103a16106bc565b73ffffffffffffffffffffffffffffffffffffffff1673ffffffffffffffffffffffffffffffffffffffff168152602001908152602001600020548114610414576040517f0cfd3b8500000000000000000000000000000000000000000000000000000000815260040160405180910390fd5b61041e83836107ec565b505050565b81600260006104306106bc565b73ffffffffffffffffffffffffffffffffffffffff1673ffffffffffffffffffffffffffffffffffffffff1681526020019081526020016000205481146104a3576040517f0cfd3b8500000000000000000000000000000000000000000000000000000000815260040160405180910390fd5b60006104ae84610375565b905060006104bb85610545565b905060006001600084815260200190815260200160002060009054906101000a900473ffffffffffffffffffffffffffffffffffffffff169050610503888389898986610913565b857ff3fa3ff7a3348de75b04ecec5ac199157e2b877c68518dd37b48751b986ad789896040516105339190611378565b60405180910390a25050505050505050565b6000806000838152602001908152602001600020600101549050919050565b7f30644e72e131a029b85045b68181585d2833e84879b9709143e1f593f000000183106105bd576040517fa61c78ca00000000000000000000000000000000000000000000000000000000815260040160405180910390fd5b60006105c884610375565b146105ff576040517f8121725b00000000000000000000000000000000000000000000000000000000815260040160405180910390fd5b60008084815260200190815260200160002073__$0c6eb7207c37accf1552a1c47686411ac0$__631095fbb4909184846040518463ffffffff1660e01b815260040161064d93929190611413565b60006040518083038186803b15801561066557600080fd5b505af4158015610679573d6000803e3d6000fd5b50505050827f0d000126c26c1bbe400fd2332187f75d58b69306f9ec47b408686189d3a0083383836040516106af929190611465565b60405180910390a2505050565b600033905090565b60006106cf87610545565b1415610707576040517f029f057900000000000000000000000000000000000000000000000000000000815260040160405180910390fd5b60008087815260200190815260200160002073__$0c6eb7207c37accf1552a1c47686411ac0$__630629596f909187878787876040518763ffffffff1660e01b815260040161075b969594939291906113bc565b60006040518083038186803b15801561077357600080fd5b505af4158015610787573d6000803e3d6000fd5b50505050600061079687610545565b905060006107a48484610c0c565b9050877f3108849c053c77b8073a11256dffb5ffd5b55e93e105a355e1c9061db890d8718289856040516107da9392919061148e565b60405180910390a25050505050505050565b60006107f783610375565b141561082f576040517f029f057900000000000000000000000000000000000000000000000000000000815260040160405180910390fd5b60008083815260200190815260200160002073__$0c6eb7207c37accf1552a1c47686411ac0$__63168703fa9091836040518363ffffffff1660e01b815260040161087b929190611393565b60006040518083038186803b15801561089357600080fd5b505af41580156108a7573d6000803e3d6000fd5b5050505060006108b683610545565b9050600060016108c585610356565b6108cf9190611657565b9050837f19239b3f93cd10558aaf11423af70c77763bf54f52bcc75bfa74d4d13548cde98285856040516109059392919061148e565b60405180910390a250505050565b600061091e87610d3b565b90508173ffffffffffffffffffffffffffffffffffffffff16635fe8c13b604051806040016040528086600060088110610981577f4e487b7100000000000000000000000000000000000000000000000000000000600052603260045260246000fd5b60200201358152602001866001600881106109c5577f4e487b7100000000000000000000000000000000000000000000000000000000600052603260045260246000fd5b60200201358152506040518060400160405280604051806040016040528089600260088110610a1d577f4e487b7100000000000000000000000000000000000000000000000000000000600052603260045260246000fd5b6020020135815260200189600360088110610a61577f4e487b7100000000000000000000000000000000000000000000000000000000600052603260045260246000fd5b60200201358152508152602001604051806040016040528089600460088110610ab3577f4e487b7100000000000000000000000000000000000000000000000000000000600052603260045260246000fd5b6020020135815260200189600560088110610af7577f4e487b7100000000000000000000000000000000000000000000000000000000600052603260045260246000fd5b6020020135815250815250604051806040016040528088600660088110610b47577f4e487b7100000000000000000000000000000000000000000000000000000000600052603260045260246000fd5b6020020135815260200188600760088110610b8b577f4e487b7100000000000000000000000000000000000000000000000000000000600052603260045260246000fd5b602002013581525060405180608001604052808c81526020018b81526020018781526020018a8152506040518563ffffffff1660e01b8152600401610bd39493929190611331565b60006040518083038186803b158015610beb57600080fd5b505afa158015610bff573d6000803e3d6000fd5b5050505050505050505050565b6000806000905060008484905090505b60008160ff161115610d30576000821180610c97575060008585600184610c43919061168b565b60ff16818110610c7c577f4e487b7100000000000000000000000000000000000000000000000000000000600052603260045260246000fd5b9050602002016020810190610c91919061102b565b60ff1614155b15610d2457600282610ca991906115fd565b915060018585600184610cbc919061168b565b60ff16818110610cf5577f4e487b7100000000000000000000000000000000000000000000000000000000600052603260045260246000fd5b9050602002016020810190610d0a919061102b565b60ff161415610d2357600182610d2091906115a7565b91505b5b80600190039050610c1c565b508091505092915050565b6000600882604051602001610d509190611316565b6040516020818303038152906040528051906020012060001c901c9050919050565b600081359050610d818161175a565b92915050565b600081905082602060080282011115610d9f57600080fd5b92915050565b60008083601f840112610db757600080fd5b8235905067ffffffffffffffff811115610dd057600080fd5b602083019150836020820283011115610de857600080fd5b9250929050565b60008083601f840112610e0157600080fd5b8235905067ffffffffffffffff811115610e1a57600080fd5b602083019150836020820283011115610e3257600080fd5b9250929050565b600081359050610e4881611771565b92915050565b600081359050610e5d81611788565b92915050565b600081359050610e728161179f565b92915050565b6000806000806101608587031215610e8f57600080fd5b6000610e9d87828801610e39565b9450506020610eae87828801610e4e565b9350506040610ebf87828801610e4e565b9250506060610ed087828801610d87565b91505092959194509250565b600060208284031215610eee57600080fd5b6000610efc84828501610e4e565b91505092915050565b600080600060608486031215610f1a57600080fd5b6000610f2886828701610e4e565b9350506020610f3986828701610d72565b9250506040610f4a86828701610e4e565b9150509250925092565b60008060408385031215610f6757600080fd5b6000610f7585828601610e4e565b9250506020610f8685828601610e4e565b9150509250929050565b60008060008060008060808789031215610fa957600080fd5b6000610fb789828a01610e4e565b9650506020610fc889828a01610e4e565b955050604087013567ffffffffffffffff811115610fe557600080fd5b610ff189828a01610da5565b9450945050606087013567ffffffffffffffff81111561101057600080fd5b61101c89828a01610def565b92509250509295509295509295565b60006020828403121561103d57600080fd5b600061104b84828501610e63565b91505092915050565b600061106083836110f3565b60408301905092915050565b600061107883836112da565b60208301905092915050565b60006110908383611307565b60208301905092915050565b6110a5816114ed565b6110af8184611542565b92506110ba826114c5565b8060005b838110156110eb5781516110d28782611054565b96506110dd8361150e565b9250506001810190506110be565b505050505050565b6110fc816114f8565b611106818461154d565b9250611111826114cf565b8060005b83811015611142578151611129878261106c565b96506111348361151b565b925050600181019050611115565b505050505050565b611153816114f8565b61115d8184611558565b9250611168826114cf565b8060005b83811015611199578151611180878261106c565b965061118b8361151b565b92505060018101905061116c565b505050505050565b6111aa81611503565b6111b48184611563565b92506111bf826114d9565b8060005b838110156111f05781516111d7878261106c565b96506111e283611528565b9250506001810190506111c3565b505050505050565b6000611204838561156e565b93507f07ffffffffffffffffffffffffffffffffffffffffffffffffffffffffffffff83111561123357600080fd5b602083029250611244838584611712565b82840190509392505050565b600061125c838561157f565b9350611267826114e3565b8060005b858110156112a05761127d8284611590565b6112878882611084565b975061129283611535565b92505060018101905061126b565b5085925050509392505050565b6112b6816116d1565b82525050565b6112cd6112c8826116d1565b611721565b82525050565b8082525050565b6112e3816116fb565b82525050565b6112f2816116fb565b82525050565b611301816116fb565b82525050565b61131081611705565b82525050565b600061132282846112bc565b60208201915081905092915050565b600061018082019050611347600083018761114a565b611354604083018661109c565b61136160c083018561114a565b61136f6101008301846111a1565b95945050505050565b600060208201905061138d60008301846112ad565b92915050565b60006040820190506113a860008301856112d3565b6113b560208301846112f8565b9392505050565b60006080820190506113d160008301896112d3565b6113de60208301886112f8565b81810360408301526113f18186886111f8565b90508181036060830152611406818486611250565b9050979650505050505050565b600060608201905061142860008301866112d3565b61143560208301856112f8565b61144260408301846112f8565b949350505050565b600060208201905061145f60008301846112e9565b92915050565b600060408201905061147a60008301856112e9565b61148760208301846112e9565b9392505050565b60006060820190506114a360008301866112e9565b6114b060208301856112e9565b6114bd60408301846112e9565b949350505050565b6000819050919050565b6000819050919050565b6000819050919050565b6000819050919050565b600060029050919050565b600060029050919050565b600060049050919050565b6000602082019050919050565b6000602082019050919050565b6000602082019050919050565b6000602082019050919050565b600081905092915050565b600081905092915050565b600081905092915050565b600081905092915050565b600082825260208201905092915050565b600082825260208201905092915050565b600061159f6020840184610e63565b905092915050565b60006115b2826116fb565b91506115bd836116fb565b9250827fffffffffffffffffffffffffffffffffffffffffffffffffffffffffffffffff038211156115f2576115f161172b565b5b828201905092915050565b6000611608826116fb565b9150611613836116fb565b9250817fffffffffffffffffffffffffffffffffffffffffffffffffffffffffffffffff048311821515161561164c5761164b61172b565b5b828202905092915050565b6000611662826116fb565b915061166d836116fb565b9250828210156116805761167f61172b565b5b828203905092915050565b600061169682611705565b91506116a183611705565b9250828210156116b4576116b361172b565b5b828203905092915050565b60006116ca826116db565b9050919050565b6000819050919050565b600073ffffffffffffffffffffffffffffffffffffffff82169050919050565b6000819050919050565b600060ff82169050919050565b82818337600083830152505050565b6000819050919050565b7f4e487b7100000000000000000000000000000000000000000000000000000000600052601160045260246000fd5b611763816116bf565b811461176e57600080fd5b50565b61177a816116d1565b811461178557600080fd5b50565b611791816116fb565b811461179c57600080fd5b50565b6117a881611705565b81146117b357600080fd5b5056fea2646970667358221220860106dc08abd55b7766884f719dfab67ba3f3d8cd21be27f60a508b8d8baac464736f6c63430008040033",
  "linkReferences": {
    "@zk-kit/incremental-merkle-tree.sol/IncrementalBinaryTree.sol": {
      "IncrementalBinaryTree": [
        {
          "length": 20,
          "start": 2568
        },
        {
          "length": 20,
          "start": 2832
        },
        {
          "length": 20,
          "start": 3128
        }
      ]
    }
  },
  "deployedLinkReferences": {
    "@zk-kit/incremental-merkle-tree.sol/IncrementalBinaryTree.sol": {
      "IncrementalBinaryTree": [
        {
          "length": 20,
          "start": 1555
        },
        {
          "length": 20,
          "start": 1819
        },
        {
          "length": 20,
          "start": 2115
        }
      ]
    }
  }
}